{"abi":[{"type":"constructor","inputs":[{"name":"_implementation","type":"address","internalType":"address"},{"name":"_usdc","type":"address","internalType":"address"},{"name":"_oracleSigner","type":"address","internalType":"address"},{"name":"_treasury","type":"address","internalType":"address"}],"stateMutability":"nonpayable"},{"type":"function","name":"SETTLEMENT_WINDOW","inputs":[],"outputs":[{"name":"","type":"uint256","internalType":"uint256"}],"stateMutability":"view"},{"type":"function","name":"TRADING_DURATION","inputs":[],"outputs":[{"name":"","type":"uint256","internalType":"uint256"}],"stateMutability":"view"},{"type":"function","name":"createMarket","inputs":[{"name":"_marketType","type":"uint8","internalType":"enum OPickAttentionMarket.MarketType"},{"name":"_metricType","type":"uint8","internalType":"enum OPickAttentionMarket.MetricType"},{"name":"_keywordA","type":"string","internalType":"string"},{"name":"_keywordB","type":"string","internalType":"string"},{"name":"_threshold","type":"uint256","internalType":"uint256"},{"name":"_initialReserve","type":"uint256","internalType":"uint256"}],"outputs":[{"name":"market","type":"address","internalType":"address"},{"name":"id","type":"uint256","internalType":"uint256"}],"stateMutability":"nonpayable"},{"type":"function","name":"getAllMarkets","inputs":[],"outputs":[{"name":"","type":"address[]","internalType":"address[]"}],"stateMutability":"view"},{"type":"function","name":"implementation","inputs":[],"outputs":[{"name":"","type":"address","internalType":"address"}],"stateMutability":"view"},{"type":"function","name":"isMarket","inputs":[{"name":"","type":"address","internalType":"address"}],"outputs":[{"name":"","type":"bool","internalType":"bool"}],"stateMutability":"view"},{"type":"function","name":"markets","inputs":[{"name":"","type":"uint256","internalType":"uint256"}],"outputs":[{"name":"","type":"address","internalType":"address"}],"stateMutability":"view"},{"type":"function","name":"nextMarketId","inputs":[],"outputs":[{"name":"","type":"uint256","internalType":"uint256"}],"stateMutability":"view"},{"type":"function","name":"oracleSigner","inputs":[],"outputs":[{"name":"","type":"address","internalType":"address"}],"stateMutability":"view"},{"type":"function","name":"owner","inputs":[],"outputs":[{"name":"","type":"address","internalType":"address"}],"stateMutability":"view"},{"type":"function","name":"renounceOwnership","inputs":[],"outputs":[],"stateMutability":"nonpayable"},{"type":"function","name":"setOracleSigner","inputs":[{"name":"_newSigner","type":"address","internalType":"address"}],"outputs":[],"stateMutability":"nonpayable"},{"type":"function","name":"setTreasury","inputs":[{"name":"_newTreasury","type":"address","internalType":"address"}],"outputs":[],"stateMutability":"nonpayable"},{"type":"function","name":"totalMarkets","inputs":[],"outputs":[{"name":"","type":"uint256","internalType":"uint256"}],"stateMutability":"view"},{"type":"function","name":"transferOwnership","inputs":[{"name":"newOwner","type":"address","internalType":"address"}],"outputs":[],"stateMutability":"nonpayable"},{"type":"function","name":"treasury","inputs":[],"outputs":[{"name":"","type":"address","internalType":"address"}],"stateMutability":"view"},{"type":"function","name":"usdc","inputs":[],"outputs":[{"name":"","type":"address","internalType":"contract IERC20"}],"stateMutability":"view"},{"type":"event","name":"KeywordRegistered","inputs":[{"name":"hash","type":"bytes32","indexed":true,"internalType":"bytes32"},{"name":"keyword","type":"string","indexed":false,"internalType":"string"}],"anonymous":false},{"type":"event","name":"MarketCreated","inputs":[{"name":"market","type":"address","indexed":true,"internalType":"address"},{"name":"marketId","type":"uint256","indexed":true,"internalType":"uint256"},{"name":"marketType","type":"uint8","indexed":false,"internalType":"enum OPickAttentionMarket.MarketType"},{"name":"metricType","type":"uint8","indexed":false,"internalType":"enum OPickAttentionMarket.MetricType"},{"name":"keywordA","type":"bytes32","indexed":false,"internalType":"bytes32"},{"name":"keywordB","type":"bytes32","indexed":false,"internalType":"bytes32"},{"name":"threshold","type":"uint256","indexed":false,"internalType":"uint256"},{"name":"initialReserve","type":"uint256","indexed":false,"internalType":"uint256"}],"anonymous":false},{"type":"event","name":"OracleSignerUpdated","inputs":[{"name":"oldSigner","type":"address","indexed":true,"internalType":"address"},{"name":"newSigner","type":"address","indexed":true,"internalType":"address"}],"anonymous":false},{"type":"event","name":"OwnershipTransferred","inputs":[{"name":"previousOwner","type":"address","indexed":true,"internalType":"address"},{"name":"newOwner","type":"address","indexed":true,"internalType":"address"}],"anonymous":false},{"type":"error","name":"AddressEmptyCode","inputs":[{"name":"target","type":"address","internalType":"address"}]},{"type":"error","name":"AddressInsufficientBalance","inputs":[{"name":"account","type":"address","internalType":"address"}]},{"type":"error","name":"ERC1167FailedCreateClone","inputs":[]},{"type":"error","name":"EmptyKeyword","inputs":[]},{"type":"error","name":"FailedInnerCall","inputs":[]},{"type":"error","name":"OwnableInvalidOwner","inputs":[{"name":"owner","type":"address","internalType":"address"}]},{"type":"error","name":"OwnableUnauthorizedAccount","inputs":[{"name":"account","type":"address","internalType":"address"}]},{"type":"error","name":"SafeERC20FailedOperation","inputs":[{"name":"token","type":"address","internalType":"address"}]},{"type":"error","name":"ZeroAddress","inputs":[]},{"type":"error","name":"ZeroReserve","inputs":[]}],"bytecode":{"object":"0x60c0346200019a57601f6200124a38819003918201601f191683019291906001600160401b038411838510176200019f5781608092849260409687528339810103126200019a576200005181620001b5565b906200006060208201620001b5565b906200007c606062000074868401620001b5565b9201620001b5565b9033156200018257600080546001600160a01b0319808216339081178455885191966001600160a01b039490938516907f8be0079c531659141344cd1fd0a4f28419497f9722a3daafe3b4186f6b6457e09080a382871615620001735750811691821562000162578116928315620001625716938415620001515760805260a05281600154161760015560025416176002555161107f9081620001cb82396080518181816105b90152610bee015260a0518181816106bf015281816107210152818161085b01528181610abc0152610c5d0152f35b855163d92e233d60e01b8152600490fd5b865163d92e233d60e01b8152600490fd5b63d92e233d60e01b8152600490fd5b8451631e4fbdf760e01b815260006004820152602490fd5b600080fd5b634e487b7160e01b600052604160045260246000fd5b51906001600160a01b03821682036200019a5756fe608080604052600436101561001357600080fd5b600090813560e01c90816315574aca14610d68575080631709a61b14610d3457806328bff9db14610c9f5780633deb6cae14610c815780633e413bee14610c30578063406ef2ef14610c125780635c60da1b14610bc15780635d7730c1146104c657806361d027b3146104925780636ec934da14610444578063715018a6146103c55780638162486b146103a75780638da5cb5b14610374578063b0772d0b14610294578063b1283e7714610244578063f0f44260146101a95763f2fde38b146100dc57600080fd5b346101a65760206003193601126101a65760043573ffffffffffffffffffffffffffffffffffffffff8082168092036101a257610117610f8e565b811561017157600054827fffffffffffffffffffffffff0000000000000000000000000000000000000000821617600055167f8be0079c531659141344cd1fd0a4f28419497f9722a3daafe3b4186f6b6457e0600080a380f35b602483604051907f1e4fbdf70000000000000000000000000000000000000000000000000000000082526004820152fd5b8280fd5b80fd5b50346101a65760206003193601126101a65760043573ffffffffffffffffffffffffffffffffffffffff8116809103610240576101e4610f8e565b8015610216577fffffffffffffffffffffffff0000000000000000000000000000000000000000600254161760025580f35b60046040517fd92e233d000000000000000000000000000000000000000000000000000000008152fd5b5080fd5b50346101a65760206003193601126101a657600435906003548210156101a657602073ffffffffffffffffffffffffffffffffffffffff61028484610db8565b90549060031b1c16604051908152f35b50346101a657806003193601126101a65760405180916003549081835260208093018092600383527fc2575a0e9e593c00f959f8c92f12db2869c3395a3b0502d05e2516446f71f85b90835b81811061034a57505050846102f6910385610e1e565b60405193838594850191818652518092526040850193925b82811061031d57505050500390f35b835173ffffffffffffffffffffffffffffffffffffffff168552869550938101939281019260010161030e565b825473ffffffffffffffffffffffffffffffffffffffff16845292860192600192830192016102e0565b50346101a657806003193601126101a65773ffffffffffffffffffffffffffffffffffffffff6020915416604051908152f35b50346101a657806003193601126101a6576020600354604051908152f35b50346101a657806003193601126101a6576103de610f8e565b600073ffffffffffffffffffffffffffffffffffffffff81547fffffffffffffffffffffffff000000000000000000000000000000000000000081168355167f8be0079c531659141344cd1fd0a4f28419497f9722a3daafe3b4186f6b6457e08280a380f35b50346101a65760206003193601126101a65760043573ffffffffffffffffffffffffffffffffffffffff81168091036102405760408260ff9260209452600484522054166040519015158152f35b50346101a657806003193601126101a657602073ffffffffffffffffffffffffffffffffffffffff60025416604051908152f35b50346101a65760c06003193601126101a657600260043510156101a657600460243510156101a65760443567ffffffffffffffff81116102405761050e903690600401610d85565b919060643567ffffffffffffffff81116101a257610530903690600401610d85565b91610539610f8e565b8415610b975760a43515610b6d57600554927fffffffffffffffffffffffffffffffffffffffffffffffffffffffffffffffff8414610b405760018401600555610584368784610ec8565b8051602090910120928115610b395761059e368383610ec8565b60208151910120925b6e5af43d82803e903d91602b57fd5bf37f0000000000000000000000000000000000000000000000000000000000000000763d602d80600a3d3981f3363d3d373d3d3d363d7300000062ffffff8260881c1617895260781b1760205273ffffffffffffffffffffffffffffffffffffffff6037600989f016968715610b0f5760a43560a43560011b04600203610a50576040517f23b872dd00000000000000000000000000000000000000000000000000000000602082015233602482015288604482015260a43560011b6064820152606481528060a081011067ffffffffffffffff60a0830111176109fc5781808260a061074694016040526020815191018273ffffffffffffffffffffffffffffffffffffffff7f0000000000000000000000000000000000000000000000000000000000000000165af13d15610b07573d906106f282610e8e565b916107006040519384610e1e565b82523d84602084013e5b73ffffffffffffffffffffffffffffffffffffffff7f000000000000000000000000000000000000000000000000000000000000000016610fdf565b8051908115159182610ae3575b5050610a7d5762093a8042014211610a5057620a8c00420162093a80420111610a505773ffffffffffffffffffffffffffffffffffffffff6001541673ffffffffffffffffffffffffffffffffffffffff6002541673ffffffffffffffffffffffffffffffffffffffff835416908a3b15610a4c57604051927f2ee917440000000000000000000000000000000000000000000000000000000084528a600485015261080460248501600435610eff565b61081360448501602435610f3b565b89606485015288608485015260843560a48501524260c485015262093a80420160e4850152620a8c00420161010485015273ffffffffffffffffffffffffffffffffffffffff7f00000000000000000000000000000000000000000000000000000000000000001661012485015261014484015261016483015261018482015260a4356101a482015281816101c481838d5af18015610a4157610a29575b50600354680100000000000000008110156109fc57946040997ff8db5cfcb80ddb067c3fcd6a16dc667e619d246a8bea03516bb1f1b7a5dadef79560c095898b9a968e86978f6109088e829f600101600355610db8565b73ffffffffffffffffffffffffffffffffffffffff829392549160031b92831b921b19161790558c815260046020522060017fffffffffffffffffffffffffffffffffffffffffffffffffffffffffffffff008254161790558e51806109917f0cfedf81f5f7ef09dc1eaa7b84e283dc101efaba603fb05e5e0126849ba5729f97889483610f48565b0390a2836109e2575b505050508851916109ad83600435610eff565b6109bc60208401602435610f3b565b898301526060820152608435608082015260a43560a0820152a382519182526020820152f35b6109f08d5192839283610f48565b0390a28038808061099a565b6024827f4e487b710000000000000000000000000000000000000000000000000000000081526041600452fd5b67ffffffffffffffff81116109fc57604052386108b1565b6040513d84823e3d90fd5b8380fd5b807f4e487b7100000000000000000000000000000000000000000000000000000000602492526011600452fd5b60246040517f5274afe700000000000000000000000000000000000000000000000000000000815273ffffffffffffffffffffffffffffffffffffffff7f0000000000000000000000000000000000000000000000000000000000000000166004820152fd5b81925090602091810103126102405760200151801590811503610240573880610753565b60609061070a565b60046040517fc2f868f4000000000000000000000000000000000000000000000000000000008152fd5b85926105a7565b6024857f4e487b710000000000000000000000000000000000000000000000000000000081526011600452fd5b60046040517f5f42f8be000000000000000000000000000000000000000000000000000000008152fd5b60046040517fc3a43324000000000000000000000000000000000000000000000000000000008152fd5b50346101a657806003193601126101a657602060405173ffffffffffffffffffffffffffffffffffffffff7f0000000000000000000000000000000000000000000000000000000000000000168152f35b50346101a657806003193601126101a6576020600554604051908152f35b50346101a657806003193601126101a657602060405173ffffffffffffffffffffffffffffffffffffffff7f0000000000000000000000000000000000000000000000000000000000000000168152f35b50346101a657806003193601126101a6576020604051620151808152f35b50346101a65760206003193601126101a65760043573ffffffffffffffffffffffffffffffffffffffff8082168092036101a257610cdb610f8e565b811561021657600154827fffffffffffffffffffffffff0000000000000000000000000000000000000000821617600155167f53484eb5c3028cc71fda017d41e647dea2740218d0f723d84cf7e98476459a8e8380a380f35b50346101a657806003193601126101a657602073ffffffffffffffffffffffffffffffffffffffff60015416604051908152f35b9050346102405781600319360112610240578062093a8060209252f35b9181601f84011215610db35782359167ffffffffffffffff8311610db35760208381860195010111610db357565b600080fd5b600354811015610def5760036000527fc2575a0e9e593c00f959f8c92f12db2869c3395a3b0502d05e2516446f71f85b0190600090565b7f4e487b7100000000000000000000000000000000000000000000000000000000600052603260045260246000fd5b90601f7fffffffffffffffffffffffffffffffffffffffffffffffffffffffffffffffe0910116810190811067ffffffffffffffff821117610e5f57604052565b7f4e487b7100000000000000000000000000000000000000000000000000000000600052604160045260246000fd5b67ffffffffffffffff8111610e5f57601f017fffffffffffffffffffffffffffffffffffffffffffffffffffffffffffffffe01660200190565b929192610ed482610e8e565b91610ee26040519384610e1e565b829481845281830111610db3578281602093846000960137010152565b906002821015610f0c5752565b7f4e487b7100000000000000000000000000000000000000000000000000000000600052602160045260246000fd5b906004821015610f0c5752565b90601f836040947fffffffffffffffffffffffffffffffffffffffffffffffffffffffffffffffe093602086528160208701528686013760008582860101520116010190565b73ffffffffffffffffffffffffffffffffffffffff600054163303610faf57565b60246040517f118cdaa7000000000000000000000000000000000000000000000000000000008152336004820152fd5b9061101e5750805115610ff457805190602001fd5b60046040517f1425ea42000000000000000000000000000000000000000000000000000000008152fd5b81511580611076575b61102f575090565b60249073ffffffffffffffffffffffffffffffffffffffff604051917f9996b315000000000000000000000000000000000000000000000000000000008352166004820152fd5b50803b1561102756","linkReferences":{}},"methodIdentifiers":{"SETTLEMENT_WINDOW()":"3deb6cae","TRADING_DURATION()":"15574aca","createMarket(uint8,uint8,string,string,uint256,uint256)":"5d7730c1","getAllMarkets()":"b0772d0b","implementation()":"5c60da1b","isMarket(address)":"6ec934da","markets(uint256)":"b1283e77","nextMarketId()":"406ef2ef","oracleSigner()":"1709a61b","owner()":"8da5cb5b","renounceOwnership()":"715018a6","setOracleSigner(address)":"28bff9db","setTreasury(address)":"f0f44260","totalMarkets()":"8162486b","transferOwnership(address)":"f2fde38b","treasury()":"61d027b3","usdc()":"3e413bee"},"id":17}