{
  "_format": "hh-sol-artifact-1",
  "contractName": "OPickMarket",
  "sourceName": "contracts/OPickMarket.sol",
  "abi": [
    {
      "inputs": [
        {
          "internalType": "address",
          "name": "_usdc",
          "type": "address"
        },
        {
          "internalType": "address",
          "name": "_creator",
          "type": "address"
        },
        {
          "internalType": "address",
          "name": "_treasury",
          "type": "address"
        },
        {
          "internalType": "string",
          "name": "_topic",
          "type": "string"
        },
        {
          "internalType": "string",
          "name": "_sideA",
          "type": "string"
        },
        {
          "internalType": "string",
          "name": "_sideB",
          "type": "string"
        },
        {
          "internalType": "string",
          "name": "_category",
          "type": "string"
        },
        {
          "internalType": "uint256",
          "name": "_initRes",
          "type": "uint256"
        }
      ],
      "stateMutability": "nonpayable",
      "type": "constructor"
    },
    {
      "inputs": [],
      "name": "ReentrancyGuardReentrantCall",
      "type": "error"
    },
    {
      "inputs": [
        {
          "internalType": "address",
          "name": "token",
          "type": "address"
        }
      ],
      "name": "SafeERC20FailedOperation",
      "type": "error"
    },
    {
      "anonymous": false,
      "inputs": [
        {
          "indexed": true,
          "internalType": "address",
          "name": "user",
          "type": "address"
        },
        {
          "indexed": true,
          "internalType": "bool",
          "name": "isSideA",
          "type": "bool"
        },
        {
          "indexed": false,
          "internalType": "uint256",
          "name": "usdcIn",
          "type": "uint256"
        },
        {
          "indexed": false,
          "internalType": "uint256",
          "name": "sharesOut",
          "type": "uint256"
        },
        {
          "indexed": false,
          "internalType": "uint256",
          "name": "priceAfter",
          "type": "uint256"
        }
      ],
      "name": "Buy",
      "type": "event"
    },
    {
      "anonymous": false,
      "inputs": [
        {
          "indexed": true,
          "internalType": "address",
          "name": "user",
          "type": "address"
        },
        {
          "indexed": true,
          "internalType": "bool",
          "name": "isSideA",
          "type": "bool"
        },
        {
          "indexed": false,
          "internalType": "uint256",
          "name": "sharesIn",
          "type": "uint256"
        },
        {
          "indexed": false,
          "internalType": "uint256",
          "name": "usdcOut",
          "type": "uint256"
        },
        {
          "indexed": false,
          "internalType": "uint256",
          "name": "priceAfter",
          "type": "uint256"
        }
      ],
      "name": "Sell",
      "type": "event"
    },
    {
      "inputs": [],
      "name": "CREATOR_BPS",
      "outputs": [
        {
          "internalType": "uint256",
          "name": "",
          "type": "uint256"
        }
      ],
      "stateMutability": "view",
      "type": "function"
    },
    {
      "inputs": [],
      "name": "PRECISION",
      "outputs": [
        {
          "internalType": "uint256",
          "name": "",
          "type": "uint256"
        }
      ],
      "stateMutability": "view",
      "type": "function"
    },
    {
      "inputs": [],
      "name": "SPREAD_BPS",
      "outputs": [
        {
          "internalType": "uint256",
          "name": "",
          "type": "uint256"
        }
      ],
      "stateMutability": "view",
      "type": "function"
    },
    {
      "inputs": [
        {
          "internalType": "uint256",
          "name": "amt",
          "type": "uint256"
        }
      ],
      "name": "buyA",
      "outputs": [
        {
          "internalType": "uint256",
          "name": "out",
          "type": "uint256"
        }
      ],
      "stateMutability": "nonpayable",
      "type": "function"
    },
    {
      "inputs": [
        {
          "internalType": "uint256",
          "name": "amt",
          "type": "uint256"
        }
      ],
      "name": "buyB",
      "outputs": [
        {
          "internalType": "uint256",
          "name": "out",
          "type": "uint256"
        }
      ],
      "stateMutability": "nonpayable",
      "type": "function"
    },
    {
      "inputs": [],
      "name": "category",
      "outputs": [
        {
          "internalType": "string",
          "name": "",
          "type": "string"
        }
      ],
      "stateMutability": "view",
      "type": "function"
    },
    {
      "inputs": [],
      "name": "createdAt",
      "outputs": [
        {
          "internalType": "uint256",
          "name": "",
          "type": "uint256"
        }
      ],
      "stateMutability": "view",
      "type": "function"
    },
    {
      "inputs": [],
      "name": "creator",
      "outputs": [
        {
          "internalType": "address",
          "name": "",
          "type": "address"
        }
      ],
      "stateMutability": "view",
      "type": "function"
    },
    {
      "inputs": [],
      "name": "creatorEarnings",
      "outputs": [
        {
          "internalType": "uint256",
          "name": "",
          "type": "uint256"
        }
      ],
      "stateMutability": "view",
      "type": "function"
    },
    {
      "inputs": [],
      "name": "k",
      "outputs": [
        {
          "internalType": "uint256",
          "name": "",
          "type": "uint256"
        }
      ],
      "stateMutability": "view",
      "type": "function"
    },
    {
      "inputs": [],
      "name": "priceA",
      "outputs": [
        {
          "internalType": "uint256",
          "name": "",
          "type": "uint256"
        }
      ],
      "stateMutability": "view",
      "type": "function"
    },
    {
      "inputs": [],
      "name": "priceB",
      "outputs": [
        {
          "internalType": "uint256",
          "name": "",
          "type": "uint256"
        }
      ],
      "stateMutability": "view",
      "type": "function"
    },
    {
      "inputs": [],
      "name": "reserveA",
      "outputs": [
        {
          "internalType": "uint256",
          "name": "",
          "type": "uint256"
        }
      ],
      "stateMutability": "view",
      "type": "function"
    },
    {
      "inputs": [],
      "name": "reserveB",
      "outputs": [
        {
          "internalType": "uint256",
          "name": "",
          "type": "uint256"
        }
      ],
      "stateMutability": "view",
      "type": "function"
    },
    {
      "inputs": [
        {
          "internalType": "uint256",
          "name": "shares",
          "type": "uint256"
        }
      ],
      "name": "sellA",
      "outputs": [
        {
          "internalType": "uint256",
          "name": "usdcOut",
          "type": "uint256"
        }
      ],
      "stateMutability": "nonpayable",
      "type": "function"
    },
    {
      "inputs": [
        {
          "internalType": "uint256",
          "name": "shares",
          "type": "uint256"
        }
      ],
      "name": "sellB",
      "outputs": [
        {
          "internalType": "uint256",
          "name": "usdcOut",
          "type": "uint256"
        }
      ],
      "stateMutability": "nonpayable",
      "type": "function"
    },
    {
      "inputs": [
        {
          "internalType": "address",
          "name": "",
          "type": "address"
        }
      ],
      "name": "sharesA",
      "outputs": [
        {
          "internalType": "uint256",
          "name": "",
          "type": "uint256"
        }
      ],
      "stateMutability": "view",
      "type": "function"
    },
    {
      "inputs": [
        {
          "internalType": "address",
          "name": "",
          "type": "address"
        }
      ],
      "name": "sharesB",
      "outputs": [
        {
          "internalType": "uint256",
          "name": "",
          "type": "uint256"
        }
      ],
      "stateMutability": "view",
      "type": "function"
    },
    {
      "inputs": [],
      "name": "sideAName",
      "outputs": [
        {
          "internalType": "string",
          "name": "",
          "type": "string"
        }
      ],
      "stateMutability": "view",
      "type": "function"
    },
    {
      "inputs": [],
      "name": "sideBName",
      "outputs": [
        {
          "internalType": "string",
          "name": "",
          "type": "string"
        }
      ],
      "stateMutability": "view",
      "type": "function"
    },
    {
      "inputs": [],
      "name": "topic",
      "outputs": [
        {
          "internalType": "string",
          "name": "",
          "type": "string"
        }
      ],
      "stateMutability": "view",
      "type": "function"
    },
    {
      "inputs": [],
      "name": "totalSharesA",
      "outputs": [
        {
          "internalType": "uint256",
          "name": "",
          "type": "uint256"
        }
      ],
      "stateMutability": "view",
      "type": "function"
    },
    {
      "inputs": [],
      "name": "totalSharesB",
      "outputs": [
        {
          "internalType": "uint256",
          "name": "",
          "type": "uint256"
        }
      ],
      "stateMutability": "view",
      "type": "function"
    },
    {
      "inputs": [],
      "name": "totalVolume",
      "outputs": [
        {
          "internalType": "uint256",
          "name": "",
          "type": "uint256"
        }
      ],
      "stateMutability": "view",
      "type": "function"
    },
    {
      "inputs": [],
      "name": "treasury",
      "outputs": [
        {
          "internalType": "address",
          "name": "",
          "type": "address"
        }
      ],
      "stateMutability": "view",
      "type": "function"
    },
    {
      "inputs": [],
      "name": "usdc",
      "outputs": [
        {
          "internalType": "contract IERC20",
          "name": "",
          "type": "address"
        }
      ],
      "stateMutability": "view",
      "type": "function"
    }
  ],
  "bytecode": "0x6101006040523480156200001257600080fd5b506040516200147f3803806200147f8339810160408190526200003591620001bf565b60017f9b779b17422d0df92223018b32b4d1fa46e071723d6817e2486d003becc55f00556001600160a01b0380891660805287811660a052861660c05260006200008086826200034c565b5060016200008f85826200034c565b5060026200009e84826200034c565b506003620000ad83826200034c565b5060048190556005819055620000c4818062000418565b60e052505042600c555062000444945050505050565b80516001600160a01b0381168114620000f257600080fd5b919050565b634e487b7160e01b600052604160045260246000fd5b600082601f8301126200011f57600080fd5b81516001600160401b03808211156200013c576200013c620000f7565b604051601f8301601f19908116603f01168101908282118183101715620001675762000167620000f7565b81604052838152602092508660208588010111156200018557600080fd5b600091505b83821015620001a957858201830151818301840152908201906200018a565b6000602085830101528094505050505092915050565b600080600080600080600080610100898b031215620001dd57600080fd5b620001e889620000da565b9750620001f860208a01620000da565b96506200020860408a01620000da565b60608a01519096506001600160401b03808211156200022657600080fd5b620002348c838d016200010d565b965060808b01519150808211156200024b57600080fd5b620002598c838d016200010d565b955060a08b01519150808211156200027057600080fd5b6200027e8c838d016200010d565b945060c08b01519150808211156200029557600080fd5b50620002a48b828c016200010d565b92505060e089015190509295985092959890939650565b600181811c90821680620002d057607f821691505b602082108103620002f157634e487b7160e01b600052602260045260246000fd5b50919050565b601f82111562000347576000816000526020600020601f850160051c81016020861015620003225750805b601f850160051c820191505b8181101562000343578281556001016200032e565b5050505b505050565b81516001600160401b03811115620003685762000368620000f7565b6200038081620003798454620002bb565b84620002f7565b602080601f831160018114620003b857600084156200039f5750858301515b600019600386901b1c1916600185901b17855562000343565b600085815260208120601f198616915b82811015620003e957888601518255948401946001909101908401620003c8565b5085821015620004085787850151600019600388901b60f8161c191681555b5050505050600190811b01905550565b80820281158282048414176200043e57634e487b7160e01b600052601160045260246000fd5b92915050565b60805160a05160c05160e051610f91620004ee60003960008181610310015281816103e801528181610621015281816107810152610a24015260008181610279015281816109160152610bb9015260008181610198015281816108bc0152610b5f01526000818161021c015281816103a6015281816105df0152818161089a015281816108f40152818161094801528181610b3d01528181610b970152610beb0152610f916000f3fe608060405234801561001057600080fd5b506004361061018e5760003560e01c80638a65eccb116100de578063b635356711610097578063cf09e0d011610071578063cf09e0d014610355578063dc5fa6c51461035e578063dc6acd0214610367578063ef430aa61461037a57600080fd5b8063b635356714610332578063bf63a5771461033a578063c1f5399f1461034257600080fd5b80638a65eccb146102c35780638eb1a4ad146102cc578063a06d363c146102e1578063a355f897146102f4578063aaf5eb68146102fc578063b4f40c611461030b57600080fd5b8063558d43a01161014b5780635f81a57c116101255780635f81a57c1461026b57806361d027b3146102745780637759414e1461029b57806387de74e6146102a357600080fd5b8063558d43a01461024757806358e60fca1461025a5780635d057f121461026257600080fd5b806302d05d3f1461019357806319e36f3b146101d7578063352cc4dd146101ee57806335b72d971461020e5780633e413bee14610217578063459045671461023e575b600080fd5b6101ba7f000000000000000000000000000000000000000000000000000000000000000081565b6040516001600160a01b0390911681526020015b60405180910390f35b6101e060055481565b6040519081526020016101ce565b6101e06101fc366004610dee565b60076020526000908152604090205481565b6101e0600b5481565b6101ba7f000000000000000000000000000000000000000000000000000000000000000081565b6101e0610bb881565b6101e0610255366004610e1e565b610382565b6101e06104f6565b6101e060085481565b6101e0600a5481565b6101ba7f000000000000000000000000000000000000000000000000000000000000000081565b6101e0606481565b6101e06102b1366004610dee565b60066020526000908152604090205481565b6101e060095481565b6102d461052d565b6040516101ce9190610e37565b6101e06102ef366004610e1e565b6105bb565b6102d46106f3565b6101e0670de0b6b3a764000081565b6101e07f000000000000000000000000000000000000000000000000000000000000000081565b6101e0610700565b6102d4610728565b6101e0610350366004610e1e565b610735565b6101e0600c5481565b6101e060045481565b6101e0610375366004610e1e565b6109d8565b6102d4610c40565b600061038c610c4d565b6000821161039957600080fd5b6103ce6001600160a01b037f000000000000000000000000000000000000000000000000000000000000000016333085610c69565b6000826004546103de9190610e9c565b9050600061040c827f0000000000000000000000000000000000000000000000000000000000000000610eb5565b90508060055461041c9190610ed7565b92506000831161042b57600080fd5b600482905560058190553360009081526007602052604081208054859290610454908490610e9c565b92505081905550826009600082825461046d9190610e9c565b9250508190555083600a60008282546104869190610e9c565b9091555060009050337ff83f2b306d0785a8fd91972b82022c61df48599aa76e1fbaef976390424f9f2386866104ba610700565b6040805193845260208401929092529082015260600160405180910390a350506104f16001600080516020610f3c83398151915255565b919050565b60006005546004546105089190610e9c565b670de0b6b3a764000060045461051e9190610eea565b6105289190610eb5565b905090565b6001805461053a90610f01565b80601f016020809104026020016040519081016040528092919081815260200182805461056690610f01565b80156105b35780601f10610588576101008083540402835291602001916105b3565b820191906000526020600020905b81548152906001019060200180831161059657829003601f168201915b505050505081565b60006105c5610c4d565b600082116105d257600080fd5b6106076001600160a01b037f000000000000000000000000000000000000000000000000000000000000000016333085610c69565b6000826005546106179190610e9c565b90506000610645827f0000000000000000000000000000000000000000000000000000000000000000610eb5565b9050806004546106559190610ed7565b92506000831161066457600080fd5b60048190556005829055336000908152600660205260408120805485929061068d908490610e9c565b9250508190555082600860008282546106a69190610e9c565b9250508190555083600a60008282546106bf9190610e9c565b9091555060019050337ff83f2b306d0785a8fd91972b82022c61df48599aa76e1fbaef976390424f9f2386866104ba610700565b6002805461053a90610f01565b60006005546004546107129190610e9c565b670de0b6b3a764000060055461051e9190610eea565b6000805461053a90610f01565b600061073f610c4d565b60008211801561075e5750336000908152600760205260409020548211155b61076757600080fd5b6000826005546107779190610e9c565b905060006107a5827f0000000000000000000000000000000000000000000000000000000000000000610eb5565b90506000816004546107b79190610ed7565b60048390556005849055336000908152600760205260408120805492935087929091906107e5908490610ed7565b9250508190555084600960008282546107fe9190610ed7565b9091555060009050612710610814606484610eea565b61081e9190610eb5565b90506000612710610831610bb884610eea565b61083b9190610eb5565b905060006108498284610ed7565b90506108558385610ed7565b965083600a60008282546108699190610e9c565b9250508190555081600b60008282546108829190610e9c565b909155505081156108e1576108e16001600160a01b037f0000000000000000000000000000000000000000000000000000000000000000167f000000000000000000000000000000000000000000000000000000000000000084610caa565b801561093b5761093b6001600160a01b037f0000000000000000000000000000000000000000000000000000000000000000167f000000000000000000000000000000000000000000000000000000000000000083610caa565b61096f6001600160a01b037f0000000000000000000000000000000000000000000000000000000000000000163389610caa565b6000337f5c7fc5fe75305fafcd56d45a72aa79d07ce6f22966e5c0b8ddefcbe6ae5f39308a8a61099d610700565b6040805193845260208401929092529082015260600160405180910390a35050505050506104f16001600080516020610f3c83398151915255565b60006109e2610c4d565b600082118015610a015750336000908152600660205260409020548211155b610a0a57600080fd5b600082600454610a1a9190610e9c565b90506000610a48827f0000000000000000000000000000000000000000000000000000000000000000610eb5565b9050600081600554610a5a9190610ed7565b6004849055600583905533600090815260066020526040812080549293508792909190610a88908490610ed7565b925050819055508460086000828254610aa19190610ed7565b9091555060009050612710610ab7606484610eea565b610ac19190610eb5565b90506000612710610ad4610bb884610eea565b610ade9190610eb5565b90506000610aec8284610ed7565b9050610af88385610ed7565b965083600a6000828254610b0c9190610e9c565b9250508190555081600b6000828254610b259190610e9c565b90915550508115610b8457610b846001600160a01b037f0000000000000000000000000000000000000000000000000000000000000000167f000000000000000000000000000000000000000000000000000000000000000084610caa565b8015610bde57610bde6001600160a01b037f0000000000000000000000000000000000000000000000000000000000000000167f000000000000000000000000000000000000000000000000000000000000000083610caa565b610c126001600160a01b037f0000000000000000000000000000000000000000000000000000000000000000163389610caa565b6001337f5c7fc5fe75305fafcd56d45a72aa79d07ce6f22966e5c0b8ddefcbe6ae5f39308a8a61099d610700565b6003805461053a90610f01565b610c55610ce4565b6002600080516020610f3c83398151915255565b610c77848484846001610d16565b610ca457604051635274afe760e01b81526001600160a01b03851660048201526024015b60405180910390fd5b50505050565b610cb78383836001610d88565b610cdf57604051635274afe760e01b81526001600160a01b0384166004820152602401610c9b565b505050565b600080516020610f3c83398151915254600203610d1457604051633ee5aeb560e01b815260040160405180910390fd5b565b6040516323b872dd60e01b60008181526001600160a01b038781166004528616602452604485905291602083606481808c5af192506001600051148316610d76578383151615610d69573d6000823e3d81fd5b6000883b113d1516831692505b60405250600060605295945050505050565b60405163a9059cbb60e01b60008181526001600160a01b038616600452602485905291602083604481808b5af192506001600051148316610de2578383151615610dd5573d6000823e3d81fd5b6000873b113d1516831692505b60405250949350505050565b600060208284031215610e0057600080fd5b81356001600160a01b0381168114610e1757600080fd5b9392505050565b600060208284031215610e3057600080fd5b5035919050565b60006020808352835180602085015260005b81811015610e6557858101830151858201604001528201610e49565b506000604082860101526040601f19601f8301168501019250505092915050565b634e487b7160e01b600052601160045260246000fd5b80820180821115610eaf57610eaf610e86565b92915050565b600082610ed257634e487b7160e01b600052601260045260246000fd5b500490565b81810381811115610eaf57610eaf610e86565b8082028115828204841417610eaf57610eaf610e86565b600181811c90821680610f1557607f821691505b602082108103610f3557634e487b7160e01b600052602260045260246000fd5b5091905056fe9b779b17422d0df92223018b32b4d1fa46e071723d6817e2486d003becc55f00a264697066735822122018dc5a381b96a1752c9fb57ba2f85182f4e327cb0b92234439ac9b41ebbe9cf164736f6c63430008180033",
  "linkReferences": {},
  "deployedLinkReferences": {}
}