{
  "_format": "hh-sol-artifact-1",
  "contractName": "OPickFactory",
  "sourceName": "contracts/OPickFactory.sol",
  "abi": [
    {
      "inputs": [
        {
          "internalType": "address",
          "name": "_usdc",
          "type": "address"
        },
        {
          "internalType": "address",
          "name": "_treasury",
          "type": "address"
        }
      ],
      "stateMutability": "nonpayable",
      "type": "constructor"
    },
    {
      "inputs": [
        {
          "internalType": "address",
          "name": "owner",
          "type": "address"
        }
      ],
      "name": "OwnableInvalidOwner",
      "type": "error"
    },
    {
      "inputs": [
        {
          "internalType": "address",
          "name": "account",
          "type": "address"
        }
      ],
      "name": "OwnableUnauthorizedAccount",
      "type": "error"
    },
    {
      "inputs": [
        {
          "internalType": "address",
          "name": "token",
          "type": "address"
        }
      ],
      "name": "SafeERC20FailedOperation",
      "type": "error"
    },
    {
      "anonymous": false,
      "inputs": [
        {
          "indexed": true,
          "internalType": "address",
          "name": "market",
          "type": "address"
        },
        {
          "indexed": true,
          "internalType": "address",
          "name": "creator",
          "type": "address"
        },
        {
          "indexed": false,
          "internalType": "string",
          "name": "topic",
          "type": "string"
        },
        {
          "indexed": false,
          "internalType": "string",
          "name": "sideA",
          "type": "string"
        },
        {
          "indexed": false,
          "internalType": "string",
          "name": "sideB",
          "type": "string"
        },
        {
          "indexed": false,
          "internalType": "string",
          "name": "category",
          "type": "string"
        },
        {
          "indexed": false,
          "internalType": "uint256",
          "name": "index",
          "type": "uint256"
        }
      ],
      "name": "MarketCreated",
      "type": "event"
    },
    {
      "anonymous": false,
      "inputs": [
        {
          "indexed": true,
          "internalType": "address",
          "name": "previousOwner",
          "type": "address"
        },
        {
          "indexed": true,
          "internalType": "address",
          "name": "newOwner",
          "type": "address"
        }
      ],
      "name": "OwnershipTransferred",
      "type": "event"
    },
    {
      "inputs": [],
      "name": "INITIAL_RESERVE",
      "outputs": [
        {
          "internalType": "uint256",
          "name": "",
          "type": "uint256"
        }
      ],
      "stateMutability": "view",
      "type": "function"
    },
    {
      "inputs": [
        {
          "internalType": "string",
          "name": "_topic",
          "type": "string"
        },
        {
          "internalType": "string",
          "name": "_sideA",
          "type": "string"
        },
        {
          "internalType": "string",
          "name": "_sideB",
          "type": "string"
        },
        {
          "internalType": "string",
          "name": "_category",
          "type": "string"
        }
      ],
      "name": "createMarket",
      "outputs": [
        {
          "internalType": "address",
          "name": "addr",
          "type": "address"
        }
      ],
      "stateMutability": "nonpayable",
      "type": "function"
    },
    {
      "inputs": [],
      "name": "creationFee",
      "outputs": [
        {
          "internalType": "uint256",
          "name": "",
          "type": "uint256"
        }
      ],
      "stateMutability": "view",
      "type": "function"
    },
    {
      "inputs": [
        {
          "internalType": "address",
          "name": "",
          "type": "address"
        },
        {
          "internalType": "uint256",
          "name": "",
          "type": "uint256"
        }
      ],
      "name": "creatorMarkets",
      "outputs": [
        {
          "internalType": "address",
          "name": "",
          "type": "address"
        }
      ],
      "stateMutability": "view",
      "type": "function"
    },
    {
      "inputs": [
        {
          "internalType": "address",
          "name": "c",
          "type": "address"
        }
      ],
      "name": "getCreatorMarkets",
      "outputs": [
        {
          "internalType": "address[]",
          "name": "",
          "type": "address[]"
        }
      ],
      "stateMutability": "view",
      "type": "function"
    },
    {
      "inputs": [
        {
          "internalType": "uint256",
          "name": "off",
          "type": "uint256"
        },
        {
          "internalType": "uint256",
          "name": "lim",
          "type": "uint256"
        }
      ],
      "name": "getMarkets",
      "outputs": [
        {
          "internalType": "address[]",
          "name": "r",
          "type": "address[]"
        }
      ],
      "stateMutability": "view",
      "type": "function"
    },
    {
      "inputs": [
        {
          "internalType": "address",
          "name": "",
          "type": "address"
        }
      ],
      "name": "isMarket",
      "outputs": [
        {
          "internalType": "bool",
          "name": "",
          "type": "bool"
        }
      ],
      "stateMutability": "view",
      "type": "function"
    },
    {
      "inputs": [
        {
          "internalType": "uint256",
          "name": "",
          "type": "uint256"
        }
      ],
      "name": "markets",
      "outputs": [
        {
          "internalType": "address",
          "name": "",
          "type": "address"
        }
      ],
      "stateMutability": "view",
      "type": "function"
    },
    {
      "inputs": [],
      "name": "owner",
      "outputs": [
        {
          "internalType": "address",
          "name": "",
          "type": "address"
        }
      ],
      "stateMutability": "view",
      "type": "function"
    },
    {
      "inputs": [],
      "name": "renounceOwnership",
      "outputs": [],
      "stateMutability": "nonpayable",
      "type": "function"
    },
    {
      "inputs": [
        {
          "internalType": "uint256",
          "name": "f",
          "type": "uint256"
        }
      ],
      "name": "setCreationFee",
      "outputs": [],
      "stateMutability": "nonpayable",
      "type": "function"
    },
    {
      "inputs": [
        {
          "internalType": "address",
          "name": "_treasury",
          "type": "address"
        }
      ],
      "name": "setTreasury",
      "outputs": [],
      "stateMutability": "nonpayable",
      "type": "function"
    },
    {
      "inputs": [],
      "name": "totalMarkets",
      "outputs": [
        {
          "internalType": "uint256",
          "name": "",
          "type": "uint256"
        }
      ],
      "stateMutability": "view",
      "type": "function"
    },
    {
      "inputs": [
        {
          "internalType": "address",
          "name": "newOwner",
          "type": "address"
        }
      ],
      "name": "transferOwnership",
      "outputs": [],
      "stateMutability": "nonpayable",
      "type": "function"
    },
    {
      "inputs": [],
      "name": "treasury",
      "outputs": [
        {
          "internalType": "address",
          "name": "",
          "type": "address"
        }
      ],
      "stateMutability": "view",
      "type": "function"
    },
    {
      "inputs": [],
      "name": "usdc",
      "outputs": [
        {
          "internalType": "contract IERC20",
          "name": "",
          "type": "address"
        }
      ],
      "stateMutability": "view",
      "type": "function"
    },
    {
      "inputs": [
        {
          "internalType": "address",
          "name": "to",
          "type": "address"
        }
      ],
      "name": "withdrawFees",
      "outputs": [],
      "stateMutability": "nonpayable",
      "type": "function"
    }
  ],
  "bytecode": "0x60a0604052600060025534801561001557600080fd5b506040516123c83803806123c8833981016040819052610034916100f8565b338061005a57604051631e4fbdf760e01b81526000600482015260240160405180910390fd5b6100638161008c565b506001600160a01b03918216608052600180546001600160a01b0319169190921617905561012b565b600080546001600160a01b038381166001600160a01b0319831681178455604051919092169283917f8be0079c531659141344cd1fd0a4f28419497f9722a3daafe3b4186f6b6457e09190a35050565b80516001600160a01b03811681146100f357600080fd5b919050565b6000806040838503121561010b57600080fd5b610114836100dc565b9150610122602084016100dc565b90509250929050565b60805161226661016260003960008181610145015281816102fe0152818161038b01528181610642015261067101526122666000f3fe60806040523480156200001157600080fd5b5060043610620001215760003560e01c806396dcf74e11620000af578063dce0b4e4116200007a578063dce0b4e41462000280578063e7d4c75e146200028a578063f0f442601462000297578063f2fde38b14620002ae578063f742913314620002c557600080fd5b806396dcf74e1462000224578063b1283e77146200023b578063b7d862251462000252578063ba1f5195146200026957600080fd5b8063715018a611620000f0578063715018a614620001cf57806380968d4814620001d95780638162486b14620001ff5780638da5cb5b146200021257600080fd5b8063164e68de14620001265780633e413bee146200013f57806361d027b314620001845780636ec934da1462000198575b600080fd5b6200013d62000137366004620009fa565b620002dc565b005b620001677f000000000000000000000000000000000000000000000000000000000000000081565b6040516001600160a01b0390911681526020015b60405180910390f35b60015462000167906001600160a01b031681565b620001be620001a9366004620009fa565b60046020526000908152604090205460ff1681565b60405190151581526020016200017b565b6200013d620003b7565b620001f0620001ea36600462000a1f565b620003cf565b6040516200017b919062000a42565b6003545b6040519081526020016200017b565b6000546001600160a01b031662000167565b620001f062000235366004620009fa565b620004c5565b620001676200024c36600462000a91565b6200053d565b6200013d6200026336600462000a91565b62000568565b620001676200027a36600462000aab565b62000577565b6200020360025481565b620002036402540be40081565b6200013d620002a8366004620009fa565b620005b0565b6200013d620002bf366004620009fa565b620005dc565b62000167620002d636600462000b24565b62000624565b620002e6620007f6565b6040516370a0823160e01b81523060048201526000907f00000000000000000000000000000000000000000000000000000000000000006001600160a01b0316906370a0823190602401602060405180830381865afa1580156200034e573d6000803e3d6000fd5b505050506040513d601f19601f8201168201806040525081019062000374919062000bf5565b90508015620003b357620003b36001600160a01b037f000000000000000000000000000000000000000000000000000000000000000016838362000825565b5050565b620003c1620007f6565b620003cd600062000863565b565b60606000620003df838562000c25565b600354909150811115620003f257506003545b620003fe848262000c41565b67ffffffffffffffff81111562000419576200041962000c57565b60405190808252806020026020018201604052801562000443578160200160208202803683370190505b509150835b81811015620004bd576003818154811062000467576200046762000c6d565b6000918252602090912001546001600160a01b03168362000489878462000c41565b815181106200049c576200049c62000c6d565b6001600160a01b039092166020928302919091019091015260010162000448565b505092915050565b6001600160a01b0381166000908152600560209081526040918290208054835181840281018401909452808452606093928301828280156200053157602002820191906000526020600020905b81546001600160a01b0316815260019091019060200180831162000512575b50505050509050919050565b600381815481106200054e57600080fd5b6000918252602090912001546001600160a01b0316905081565b62000572620007f6565b600255565b600560205281600052604060002081815481106200059457600080fd5b6000918252602090912001546001600160a01b03169150829050565b620005ba620007f6565b600180546001600160a01b0319166001600160a01b0392909216919091179055565b620005e6620007f6565b6001600160a01b0381166200061657604051631e4fbdf760e01b8152600060048201526024015b60405180910390fd5b620006218162000863565b50565b600254600090156200066d576002546200066d906001600160a01b037f0000000000000000000000000000000000000000000000000000000000000000169033903090620008b3565b60007f000000000000000000000000000000000000000000000000000000000000000033600160009054906101000a90046001600160a01b03168c8c8c8c8c8c8c8c6402540be400604051620006c390620009cf565b620006da9c9b9a9998979695949392919062000cac565b604051809103906000f080158015620006f7573d6000803e3d6000fd5b5060038054600181810183557fc2575a0e9e593c00f959f8c92f12db2869c3395a3b0502d05e2516446f71f85b90910180546001600160a01b0385166001600160a01b031991821681179092556000828152600460209081526040808320805460ff191687179055338084526005835290832080548088018255908452919092200180549092168317909155925493955085945091927ff886c9e090c39d71c2f162931b9cae46753a47e9fd4b9303be564b64ce1d6f55918e918e918e918e918e918e918e918e91620007ca9162000c41565b604051620007e19998979695949392919062000d41565b60405180910390a35098975050505050505050565b6000546001600160a01b03163314620003cd5760405163118cdaa760e01b81523360048201526024016200060d565b620008348383836001620008f3565b6200085e57604051635274afe760e01b81526001600160a01b03841660048201526024016200060d565b505050565b600080546001600160a01b038381166001600160a01b0319831681178455604051919092169283917f8be0079c531659141344cd1fd0a4f28419497f9722a3daafe3b4186f6b6457e09190a35050565b620008c38484848460016200095b565b620008ed57604051635274afe760e01b81526001600160a01b03851660048201526024016200060d565b50505050565b60405163a9059cbb60e01b60008181526001600160a01b038616600452602485905291602083604481808b5af1925060016000511483166200094f57838315161562000942573d6000823e3d81fd5b6000873b113d1516831692505b60405250949350505050565b6040516323b872dd60e01b60008181526001600160a01b038781166004528616602452604485905291602083606481808c5af192506001600051148316620009bd578383151615620009b0573d6000823e3d81fd5b6000883b113d1516831692505b60405250600060605295945050505050565b61147f8062000db283390190565b80356001600160a01b0381168114620009f557600080fd5b919050565b60006020828403121562000a0d57600080fd5b62000a1882620009dd565b9392505050565b6000806040838503121562000a3357600080fd5b50508035926020909101359150565b6020808252825182820181905260009190848201906040850190845b8181101562000a855783516001600160a01b03168352928401929184019160010162000a5e565b50909695505050505050565b60006020828403121562000aa457600080fd5b5035919050565b6000806040838503121562000abf57600080fd5b62000aca83620009dd565b946020939093013593505050565b60008083601f84011262000aeb57600080fd5b50813567ffffffffffffffff81111562000b0457600080fd5b60208301915083602082850101111562000b1d57600080fd5b9250929050565b6000806000806000806000806080898b03121562000b4157600080fd5b883567ffffffffffffffff8082111562000b5a57600080fd5b62000b688c838d0162000ad8565b909a50985060208b013591508082111562000b8257600080fd5b62000b908c838d0162000ad8565b909850965060408b013591508082111562000baa57600080fd5b62000bb88c838d0162000ad8565b909650945060608b013591508082111562000bd257600080fd5b5062000be18b828c0162000ad8565b999c989b5096995094979396929594505050565b60006020828403121562000c0857600080fd5b5051919050565b634e487b7160e01b600052601160045260246000fd5b8082018082111562000c3b5762000c3b62000c0f565b92915050565b8181038181111562000c3b5762000c3b62000c0f565b634e487b7160e01b600052604160045260246000fd5b634e487b7160e01b600052603260045260246000fd5b81835281816020850137506000828201602090810191909152601f909101601f19169091010190565b6001600160a01b038d811682528c811660208301528b1660408201526101006060820181905260009062000ce49083018b8d62000c83565b828103608084015262000cf9818a8c62000c83565b905082810360a084015262000d1081888a62000c83565b905082810360c084015262000d2781868862000c83565b9150508260e08301529d9c50505050505050505050505050565b60a08152600062000d5760a083018b8d62000c83565b828103602084015262000d6c818a8c62000c83565b9050828103604084015262000d8381888a62000c83565b9050828103606084015262000d9a81868862000c83565b9150508260808301529a995050505050505050505056fe6101006040523480156200001257600080fd5b506040516200147f3803806200147f8339810160408190526200003591620001bf565b60017f9b779b17422d0df92223018b32b4d1fa46e071723d6817e2486d003becc55f00556001600160a01b0380891660805287811660a052861660c05260006200008086826200034c565b5060016200008f85826200034c565b5060026200009e84826200034c565b506003620000ad83826200034c565b5060048190556005819055620000c4818062000418565b60e052505042600c555062000444945050505050565b80516001600160a01b0381168114620000f257600080fd5b919050565b634e487b7160e01b600052604160045260246000fd5b600082601f8301126200011f57600080fd5b81516001600160401b03808211156200013c576200013c620000f7565b604051601f8301601f19908116603f01168101908282118183101715620001675762000167620000f7565b81604052838152602092508660208588010111156200018557600080fd5b600091505b83821015620001a957858201830151818301840152908201906200018a565b6000602085830101528094505050505092915050565b600080600080600080600080610100898b031215620001dd57600080fd5b620001e889620000da565b9750620001f860208a01620000da565b96506200020860408a01620000da565b60608a01519096506001600160401b03808211156200022657600080fd5b620002348c838d016200010d565b965060808b01519150808211156200024b57600080fd5b620002598c838d016200010d565b955060a08b01519150808211156200027057600080fd5b6200027e8c838d016200010d565b945060c08b01519150808211156200029557600080fd5b50620002a48b828c016200010d565b92505060e089015190509295985092959890939650565b600181811c90821680620002d057607f821691505b602082108103620002f157634e487b7160e01b600052602260045260246000fd5b50919050565b601f82111562000347576000816000526020600020601f850160051c81016020861015620003225750805b601f850160051c820191505b8181101562000343578281556001016200032e565b5050505b505050565b81516001600160401b03811115620003685762000368620000f7565b6200038081620003798454620002bb565b84620002f7565b602080601f831160018114620003b857600084156200039f5750858301515b600019600386901b1c1916600185901b17855562000343565b600085815260208120601f198616915b82811015620003e957888601518255948401946001909101908401620003c8565b5085821015620004085787850151600019600388901b60f8161c191681555b5050505050600190811b01905550565b80820281158282048414176200043e57634e487b7160e01b600052601160045260246000fd5b92915050565b60805160a05160c05160e051610f91620004ee60003960008181610310015281816103e801528181610621015281816107810152610a24015260008181610279015281816109160152610bb9015260008181610198015281816108bc0152610b5f01526000818161021c015281816103a6015281816105df0152818161089a015281816108f40152818161094801528181610b3d01528181610b970152610beb0152610f916000f3fe608060405234801561001057600080fd5b506004361061018e5760003560e01c80638a65eccb116100de578063b635356711610097578063cf09e0d011610071578063cf09e0d014610355578063dc5fa6c51461035e578063dc6acd0214610367578063ef430aa61461037a57600080fd5b8063b635356714610332578063bf63a5771461033a578063c1f5399f1461034257600080fd5b80638a65eccb146102c35780638eb1a4ad146102cc578063a06d363c146102e1578063a355f897146102f4578063aaf5eb68146102fc578063b4f40c611461030b57600080fd5b8063558d43a01161014b5780635f81a57c116101255780635f81a57c1461026b57806361d027b3146102745780637759414e1461029b57806387de74e6146102a357600080fd5b8063558d43a01461024757806358e60fca1461025a5780635d057f121461026257600080fd5b806302d05d3f1461019357806319e36f3b146101d7578063352cc4dd146101ee57806335b72d971461020e5780633e413bee14610217578063459045671461023e575b600080fd5b6101ba7f000000000000000000000000000000000000000000000000000000000000000081565b6040516001600160a01b0390911681526020015b60405180910390f35b6101e060055481565b6040519081526020016101ce565b6101e06101fc366004610dee565b60076020526000908152604090205481565b6101e0600b5481565b6101ba7f000000000000000000000000000000000000000000000000000000000000000081565b6101e0610bb881565b6101e0610255366004610e1e565b610382565b6101e06104f6565b6101e060085481565b6101e0600a5481565b6101ba7f000000000000000000000000000000000000000000000000000000000000000081565b6101e0606481565b6101e06102b1366004610dee565b60066020526000908152604090205481565b6101e060095481565b6102d461052d565b6040516101ce9190610e37565b6101e06102ef366004610e1e565b6105bb565b6102d46106f3565b6101e0670de0b6b3a764000081565b6101e07f000000000000000000000000000000000000000000000000000000000000000081565b6101e0610700565b6102d4610728565b6101e0610350366004610e1e565b610735565b6101e0600c5481565b6101e060045481565b6101e0610375366004610e1e565b6109d8565b6102d4610c40565b600061038c610c4d565b6000821161039957600080fd5b6103ce6001600160a01b037f000000000000000000000000000000000000000000000000000000000000000016333085610c69565b6000826004546103de9190610e9c565b9050600061040c827f0000000000000000000000000000000000000000000000000000000000000000610eb5565b90508060055461041c9190610ed7565b92506000831161042b57600080fd5b600482905560058190553360009081526007602052604081208054859290610454908490610e9c565b92505081905550826009600082825461046d9190610e9c565b9250508190555083600a60008282546104869190610e9c565b9091555060009050337ff83f2b306d0785a8fd91972b82022c61df48599aa76e1fbaef976390424f9f2386866104ba610700565b6040805193845260208401929092529082015260600160405180910390a350506104f16001600080516020610f3c83398151915255565b919050565b60006005546004546105089190610e9c565b670de0b6b3a764000060045461051e9190610eea565b6105289190610eb5565b905090565b6001805461053a90610f01565b80601f016020809104026020016040519081016040528092919081815260200182805461056690610f01565b80156105b35780601f10610588576101008083540402835291602001916105b3565b820191906000526020600020905b81548152906001019060200180831161059657829003601f168201915b505050505081565b60006105c5610c4d565b600082116105d257600080fd5b6106076001600160a01b037f000000000000000000000000000000000000000000000000000000000000000016333085610c69565b6000826005546106179190610e9c565b90506000610645827f0000000000000000000000000000000000000000000000000000000000000000610eb5565b9050806004546106559190610ed7565b92506000831161066457600080fd5b60048190556005829055336000908152600660205260408120805485929061068d908490610e9c565b9250508190555082600860008282546106a69190610e9c565b9250508190555083600a60008282546106bf9190610e9c565b9091555060019050337ff83f2b306d0785a8fd91972b82022c61df48599aa76e1fbaef976390424f9f2386866104ba610700565b6002805461053a90610f01565b60006005546004546107129190610e9c565b670de0b6b3a764000060055461051e9190610eea565b6000805461053a90610f01565b600061073f610c4d565b60008211801561075e5750336000908152600760205260409020548211155b61076757600080fd5b6000826005546107779190610e9c565b905060006107a5827f0000000000000000000000000000000000000000000000000000000000000000610eb5565b90506000816004546107b79190610ed7565b60048390556005849055336000908152600760205260408120805492935087929091906107e5908490610ed7565b9250508190555084600960008282546107fe9190610ed7565b9091555060009050612710610814606484610eea565b61081e9190610eb5565b90506000612710610831610bb884610eea565b61083b9190610eb5565b905060006108498284610ed7565b90506108558385610ed7565b965083600a60008282546108699190610e9c565b9250508190555081600b60008282546108829190610e9c565b909155505081156108e1576108e16001600160a01b037f0000000000000000000000000000000000000000000000000000000000000000167f000000000000000000000000000000000000000000000000000000000000000084610caa565b801561093b5761093b6001600160a01b037f0000000000000000000000000000000000000000000000000000000000000000167f000000000000000000000000000000000000000000000000000000000000000083610caa565b61096f6001600160a01b037f0000000000000000000000000000000000000000000000000000000000000000163389610caa565b6000337f5c7fc5fe75305fafcd56d45a72aa79d07ce6f22966e5c0b8ddefcbe6ae5f39308a8a61099d610700565b6040805193845260208401929092529082015260600160405180910390a35050505050506104f16001600080516020610f3c83398151915255565b60006109e2610c4d565b600082118015610a015750336000908152600660205260409020548211155b610a0a57600080fd5b600082600454610a1a9190610e9c565b90506000610a48827f0000000000000000000000000000000000000000000000000000000000000000610eb5565b9050600081600554610a5a9190610ed7565b6004849055600583905533600090815260066020526040812080549293508792909190610a88908490610ed7565b925050819055508460086000828254610aa19190610ed7565b9091555060009050612710610ab7606484610eea565b610ac19190610eb5565b90506000612710610ad4610bb884610eea565b610ade9190610eb5565b90506000610aec8284610ed7565b9050610af88385610ed7565b965083600a6000828254610b0c9190610e9c565b9250508190555081600b6000828254610b259190610e9c565b90915550508115610b8457610b846001600160a01b037f0000000000000000000000000000000000000000000000000000000000000000167f000000000000000000000000000000000000000000000000000000000000000084610caa565b8015610bde57610bde6001600160a01b037f0000000000000000000000000000000000000000000000000000000000000000167f000000000000000000000000000000000000000000000000000000000000000083610caa565b610c126001600160a01b037f0000000000000000000000000000000000000000000000000000000000000000163389610caa565b6001337f5c7fc5fe75305fafcd56d45a72aa79d07ce6f22966e5c0b8ddefcbe6ae5f39308a8a61099d610700565b6003805461053a90610f01565b610c55610ce4565b6002600080516020610f3c83398151915255565b610c77848484846001610d16565b610ca457604051635274afe760e01b81526001600160a01b03851660048201526024015b60405180910390fd5b50505050565b610cb78383836001610d88565b610cdf57604051635274afe760e01b81526001600160a01b0384166004820152602401610c9b565b505050565b600080516020610f3c83398151915254600203610d1457604051633ee5aeb560e01b815260040160405180910390fd5b565b6040516323b872dd60e01b60008181526001600160a01b038781166004528616602452604485905291602083606481808c5af192506001600051148316610d76578383151615610d69573d6000823e3d81fd5b6000883b113d1516831692505b60405250600060605295945050505050565b60405163a9059cbb60e01b60008181526001600160a01b038616600452602485905291602083604481808b5af192506001600051148316610de2578383151615610dd5573d6000823e3d81fd5b6000873b113d1516831692505b60405250949350505050565b600060208284031215610e0057600080fd5b81356001600160a01b0381168114610e1757600080fd5b9392505050565b600060208284031215610e3057600080fd5b5035919050565b60006020808352835180602085015260005b81811015610e6557858101830151858201604001528201610e49565b506000604082860101526040601f19601f8301168501019250505092915050565b634e487b7160e01b600052601160045260246000fd5b80820180821115610eaf57610eaf610e86565b92915050565b600082610ed257634e487b7160e01b600052601260045260246000fd5b500490565b81810381811115610eaf57610eaf610e86565b8082028115828204841417610eaf57610eaf610e86565b600181811c90821680610f1557607f821691505b602082108103610f3557634e487b7160e01b600052602260045260246000fd5b5091905056fe9b779b17422d0df92223018b32b4d1fa46e071723d6817e2486d003becc55f00a264697066735822122018dc5a381b96a1752c9fb57ba2f85182f4e327cb0b92234439ac9b41ebbe9cf164736f6c63430008180033a264697066735822122051cddb3712a9b431889cfcdacca7187c02538272059d5bd3a6e5203e1840140c64736f6c63430008180033",
  "linkReferences": {},
  "deployedLinkReferences": {}
}