{"abi":[{"type":"function","name":"BPS","inputs":[],"outputs":[{"name":"","type":"uint256","internalType":"uint256"}],"stateMutability":"view"},{"type":"function","name":"DISPUTE_GRACE","inputs":[],"outputs":[{"name":"","type":"uint256","internalType":"uint256"}],"stateMutability":"view"},{"type":"function","name":"FEE_BPS","inputs":[],"outputs":[{"name":"","type":"uint256","internalType":"uint256"}],"stateMutability":"view"},{"type":"function","name":"buy","inputs":[{"name":"yesSide","type":"bool","internalType":"bool"},{"name":"usdcAmount","type":"uint256","internalType":"uint256"},{"name":"minSharesOut","type":"uint256","internalType":"uint256"}],"outputs":[{"name":"sharesOut","type":"uint256","internalType":"uint256"}],"stateMutability":"nonpayable"},{"type":"function","name":"claim","inputs":[],"outputs":[],"stateMutability":"nonpayable"},{"type":"function","name":"claimed","inputs":[{"name":"","type":"address","internalType":"address"}],"outputs":[{"name":"","type":"bool","internalType":"bool"}],"stateMutability":"view"},{"type":"function","name":"closeTime","inputs":[],"outputs":[{"name":"","type":"uint256","internalType":"uint256"}],"stateMutability":"view"},{"type":"function","name":"depositsNo","inputs":[{"name":"","type":"address","internalType":"address"}],"outputs":[{"name":"","type":"uint256","internalType":"uint256"}],"stateMutability":"view"},{"type":"function","name":"depositsYes","inputs":[{"name":"","type":"address","internalType":"address"}],"outputs":[{"name":"","type":"uint256","internalType":"uint256"}],"stateMutability":"view"},{"type":"function","name":"dispute","inputs":[],"outputs":[],"stateMutability":"nonpayable"},{"type":"function","name":"emergencyPause","inputs":[],"outputs":[],"stateMutability":"nonpayable"},{"type":"function","name":"getState","inputs":[],"outputs":[{"name":"","type":"uint8","internalType":"enum OPickAttentionMarket.MarketState"}],"stateMutability":"view"},{"type":"function","name":"getUserPosition","inputs":[{"name":"user","type":"address","internalType":"address"}],"outputs":[{"name":"yesShares","type":"uint256","internalType":"uint256"},{"name":"noShares","type":"uint256","internalType":"uint256"},{"name":"yesDeposit","type":"uint256","internalType":"uint256"},{"name":"noDeposit","type":"uint256","internalType":"uint256"}],"stateMutability":"view"},{"type":"function","name":"initialize","inputs":[{"name":"_marketId","type":"uint256","internalType":"uint256"},{"name":"_marketType","type":"uint8","internalType":"enum OPickAttentionMarket.MarketType"},{"name":"_metricType","type":"uint8","internalType":"enum OPickAttentionMarket.MetricType"},{"name":"_keywordA","type":"bytes32","internalType":"bytes32"},{"name":"_keywordB","type":"bytes32","internalType":"bytes32"},{"name":"_threshold","type":"uint256","internalType":"uint256"},{"name":"_openTime","type":"uint256","internalType":"uint256"},{"name":"_closeTime","type":"uint256","internalType":"uint256"},{"name":"_settlementDeadline","type":"uint256","internalType":"uint256"},{"name":"_usdc","type":"address","internalType":"address"},{"name":"_oracleSigner","type":"address","internalType":"address"},{"name":"_treasury","type":"address","internalType":"address"},{"name":"_owner","type":"address","internalType":"address"},{"name":"_initialReserve","type":"uint256","internalType":"uint256"}],"outputs":[],"stateMutability":"nonpayable"},{"type":"function","name":"initialized","inputs":[],"outputs":[{"name":"","type":"bool","internalType":"bool"}],"stateMutability":"view"},{"type":"function","name":"keywordA","inputs":[],"outputs":[{"name":"","type":"bytes32","internalType":"bytes32"}],"stateMutability":"view"},{"type":"function","name":"keywordB","inputs":[],"outputs":[{"name":"","type":"bytes32","internalType":"bytes32"}],"stateMutability":"view"},{"type":"function","name":"marketId","inputs":[],"outputs":[{"name":"","type":"uint256","internalType":"uint256"}],"stateMutability":"view"},{"type":"function","name":"marketType","inputs":[],"outputs":[{"name":"","type":"uint8","internalType":"enum OPickAttentionMarket.MarketType"}],"stateMutability":"view"},{"type":"function","name":"metricType","inputs":[],"outputs":[{"name":"","type":"uint8","internalType":"enum OPickAttentionMarket.MetricType"}],"stateMutability":"view"},{"type":"function","name":"openTime","inputs":[],"outputs":[{"name":"","type":"uint256","internalType":"uint256"}],"stateMutability":"view"},{"type":"function","name":"oracleSigner","inputs":[],"outputs":[{"name":"","type":"address","internalType":"address"}],"stateMutability":"view"},{"type":"function","name":"owner","inputs":[],"outputs":[{"name":"","type":"address","internalType":"address"}],"stateMutability":"view"},{"type":"function","name":"paused","inputs":[],"outputs":[{"name":"","type":"bool","internalType":"bool"}],"stateMutability":"view"},{"type":"function","name":"previewBuy","inputs":[{"name":"yesSide","type":"bool","internalType":"bool"},{"name":"usdcAmount","type":"uint256","internalType":"uint256"}],"outputs":[{"name":"sharesOut","type":"uint256","internalType":"uint256"}],"stateMutability":"view"},{"type":"function","name":"previewSell","inputs":[{"name":"yesSide","type":"bool","internalType":"bool"},{"name":"shareAmount","type":"uint256","internalType":"uint256"}],"outputs":[{"name":"usdcOut","type":"uint256","internalType":"uint256"}],"stateMutability":"view"},{"type":"function","name":"protocolFeesCollected","inputs":[],"outputs":[{"name":"","type":"uint256","internalType":"uint256"}],"stateMutability":"view"},{"type":"function","name":"requestSettlement","inputs":[],"outputs":[],"stateMutability":"nonpayable"},{"type":"function","name":"reserveNo","inputs":[],"outputs":[{"name":"","type":"uint256","internalType":"uint256"}],"stateMutability":"view"},{"type":"function","name":"reserveYes","inputs":[],"outputs":[{"name":"","type":"uint256","internalType":"uint256"}],"stateMutability":"view"},{"type":"function","name":"sell","inputs":[{"name":"yesSide","type":"bool","internalType":"bool"},{"name":"shareAmount","type":"uint256","internalType":"uint256"},{"name":"minUsdcOut","type":"uint256","internalType":"uint256"}],"outputs":[{"name":"usdcOut","type":"uint256","internalType":"uint256"}],"stateMutability":"nonpayable"},{"type":"function","name":"settlementDeadline","inputs":[],"outputs":[{"name":"","type":"uint256","internalType":"uint256"}],"stateMutability":"view"},{"type":"function","name":"settlementValueA","inputs":[],"outputs":[{"name":"","type":"uint256","internalType":"uint256"}],"stateMutability":"view"},{"type":"function","name":"settlementValueB","inputs":[],"outputs":[{"name":"","type":"uint256","internalType":"uint256"}],"stateMutability":"view"},{"type":"function","name":"sharesNo","inputs":[{"name":"","type":"address","internalType":"address"}],"outputs":[{"name":"","type":"uint256","internalType":"uint256"}],"stateMutability":"view"},{"type":"function","name":"sharesYes","inputs":[{"name":"","type":"address","internalType":"address"}],"outputs":[{"name":"","type":"uint256","internalType":"uint256"}],"stateMutability":"view"},{"type":"function","name":"state","inputs":[],"outputs":[{"name":"","type":"uint8","internalType":"enum OPickAttentionMarket.MarketState"}],"stateMutability":"view"},{"type":"function","name":"submitSettlement","inputs":[{"name":"valueA","type":"uint256","internalType":"uint256"},{"name":"valueB","type":"uint256","internalType":"uint256"},{"name":"signature","type":"bytes","internalType":"bytes"}],"outputs":[],"stateMutability":"nonpayable"},{"type":"function","name":"threshold","inputs":[],"outputs":[{"name":"","type":"uint256","internalType":"uint256"}],"stateMutability":"view"},{"type":"function","name":"totalShareNo","inputs":[],"outputs":[{"name":"","type":"uint256","internalType":"uint256"}],"stateMutability":"view"},{"type":"function","name":"totalShareYes","inputs":[],"outputs":[{"name":"","type":"uint256","internalType":"uint256"}],"stateMutability":"view"},{"type":"function","name":"treasury","inputs":[],"outputs":[{"name":"","type":"address","internalType":"address"}],"stateMutability":"view"},{"type":"function","name":"unpause","inputs":[],"outputs":[],"stateMutability":"nonpayable"},{"type":"function","name":"usdc","inputs":[],"outputs":[{"name":"","type":"address","internalType":"contract IERC20"}],"stateMutability":"view"},{"type":"function","name":"yesWon","inputs":[],"outputs":[{"name":"","type":"bool","internalType":"bool"}],"stateMutability":"view"},{"type":"event","name":"Claimed","inputs":[{"name":"user","type":"address","indexed":true,"internalType":"address"},{"name":"amount","type":"uint256","indexed":false,"internalType":"uint256"}],"anonymous":false},{"type":"event","name":"Disputed","inputs":[{"name":"marketId","type":"uint256","indexed":true,"internalType":"uint256"}],"anonymous":false},{"type":"event","name":"Paused","inputs":[{"name":"account","type":"address","indexed":false,"internalType":"address"}],"anonymous":false},{"type":"event","name":"Settled","inputs":[{"name":"marketId","type":"uint256","indexed":true,"internalType":"uint256"},{"name":"yesWon","type":"bool","indexed":false,"internalType":"bool"},{"name":"valueA","type":"uint256","indexed":false,"internalType":"uint256"},{"name":"valueB","type":"uint256","indexed":false,"internalType":"uint256"}],"anonymous":false},{"type":"event","name":"SettlementRequested","inputs":[{"name":"marketId","type":"uint256","indexed":true,"internalType":"uint256"},{"name":"closeTime","type":"uint256","indexed":false,"internalType":"uint256"}],"anonymous":false},{"type":"event","name":"SharesBought","inputs":[{"name":"buyer","type":"address","indexed":true,"internalType":"address"},{"name":"yesSide","type":"bool","indexed":true,"internalType":"bool"},{"name":"usdcIn","type":"uint256","indexed":false,"internalType":"uint256"},{"name":"sharesOut","type":"uint256","indexed":false,"internalType":"uint256"}],"anonymous":false},{"type":"event","name":"SharesSold","inputs":[{"name":"seller","type":"address","indexed":true,"internalType":"address"},{"name":"yesSide","type":"bool","indexed":true,"internalType":"bool"},{"name":"sharesIn","type":"uint256","indexed":false,"internalType":"uint256"},{"name":"usdcOut","type":"uint256","indexed":false,"internalType":"uint256"}],"anonymous":false},{"type":"event","name":"Unpaused","inputs":[{"name":"account","type":"address","indexed":false,"internalType":"address"}],"anonymous":false},{"type":"error","name":"AddressEmptyCode","inputs":[{"name":"target","type":"address","internalType":"address"}]},{"type":"error","name":"AddressInsufficientBalance","inputs":[{"name":"account","type":"address","internalType":"address"}]},{"type":"error","name":"AlreadyInitialized","inputs":[]},{"type":"error","name":"DisputeTooEarly","inputs":[]},{"type":"error","name":"ECDSAInvalidSignature","inputs":[]},{"type":"error","name":"ECDSAInvalidSignatureLength","inputs":[{"name":"length","type":"uint256","internalType":"uint256"}]},{"type":"error","name":"ECDSAInvalidSignatureS","inputs":[{"name":"s","type":"bytes32","internalType":"bytes32"}]},{"type":"error","name":"EnforcedPause","inputs":[]},{"type":"error","name":"ExpectedPause","inputs":[]},{"type":"error","name":"FailedInnerCall","inputs":[]},{"type":"error","name":"InsufficientShares","inputs":[]},{"type":"error","name":"InvalidSignature","inputs":[]},{"type":"error","name":"MarketNotPendingSettlement","inputs":[]},{"type":"error","name":"MarketNotSettled","inputs":[]},{"type":"error","name":"MarketNotTrading","inputs":[]},{"type":"error","name":"NotInitialized","inputs":[]},{"type":"error","name":"NothingToClaim","inputs":[]},{"type":"error","name":"OnlyOwner","inputs":[]},{"type":"error","name":"ReentrancyGuardReentrantCall","inputs":[]},{"type":"error","name":"SafeERC20FailedOperation","inputs":[{"name":"token","type":"address","internalType":"address"}]},{"type":"error","name":"SlippageExceeded","inputs":[]},{"type":"error","name":"TradingClosed","inputs":[]},{"type":"error","name":"TradingNotClosed","inputs":[]},{"type":"error","name":"ZeroAmount","inputs":[]}],"bytecode":{"object":"0x6080806040523461002557600160005560ff196001541660015561211e908161002b8239f35b600080fdfe6040608081526004908136101561001557600080fd5b600091823560e01c806301a9812c1461139257806306a4b7e1146113695780630fea6245146112e0578063158b70e614611257578063158ef93e1461123057806316b8b43a146111ec5780631709a61b146111b75780631865c57d1461067f5780631ba49019146111735780632235cc3114611154578063249d39e914611137578063276a556e146111195780632dd48909146110d95780632ee9174414610f035780633d99459d14610ebf5780633e413bee14610e8a5780633f4ba83a14610df057806342cde4e814610dd15780634e71d92d14610d7357806351858e2714610cd757806353aaf54c14610cb85780635b7c2dad14610c4d5780635c975abb14610c2957806361d027b314610bf2578063627749e614610bd35780636ed71ede14610bb457806385806b6114610b955780638cbdbd5a14610b765780638ccd270814610b575780638da5cb5b14610b1f5780638fb182aa14610b0057806393b2a65114610a37578063a3cca7f2146109f3578063b4256888146109d4578063b46c6065146109b5578063bf333f2c14610999578063bf5b2d88146106a9578063c19d93fb1461067f578063c5d6e87f14610660578063c884ef8314610617578063cbee38dc146105f0578063cc08b834146105d1578063de25465914610340578063e638357b1461031d5763f240f7c31461021057600080fd5b3461031957826003193601126103195760ff60015460081c16156102f25760125491600160ff8416610241816116bb565b036102cc57600c546202a30081018091116102b9574211156102935783600360ff198516176012556005547f7e3d476b0ad3176eefadbd6672356ef3884fad75f1344623a88d4a80878423368280a280f35b517f058009cb000000000000000000000000000000000000000000000000000000008152fd5b602485601185634e487b7160e01b835252fd5b517f0174c447000000000000000000000000000000000000000000000000000000008152fd5b90517f87138d5c000000000000000000000000000000000000000000000000000000008152fd5b8280fd5b50503461033c578160031936011261033c57602090600f549051908152f35b5080fd5b5090346103195761035036611698565b61035b949194611b23565b610363611b5e565b60ff60015460081c16156105a95760ff60125416610380816116bb565b6105815784156105595782156104f55733865260156020528484872054106104cd57908492916103cd600d54600e546103c56103bd888385611d07565b998a93611754565b600d55611747565b600e5533875260156020528487206103e6858254611747565b90556103f484600f54611747565b600f555b60648602868104606414871517156104ba5761041c61271061042592048098611747565b96601154611754565b601155851061049357509360019160209561045a8673ffffffffffffffffffffffffffffffffffffffff600254163390611d8b565b845191825285878301521515907fcf06b88583ec57d4cf2f6795931fe9057d95a86052efc8d8b3a4cad0e885d5e9853392a35551908152f35b83517f8199f5f3000000000000000000000000000000000000000000000000000000008152fd5b602488601185634e487b7160e01b835252fd5b5082517f39996567000000000000000000000000000000000000000000000000000000008152fd5b33865260166020528484872054106104cd579084929161052a600e54600d546105226103bd888385611d07565b600e55611747565b600d553387526016602052848720610543858254611747565b905561055184601054611747565b6010556103f8565b5082517f1f2a2005000000000000000000000000000000000000000000000000000000008152fd5b5082517f3a67d481000000000000000000000000000000000000000000000000000000008152fd5b5082517f87138d5c000000000000000000000000000000000000000000000000000000008152fd5b50503461033c578160031936011261033c576020906011549051908152f35b50503461033c578160031936011261033c5760209060ff60125460081c1690519015158152f35b50503461033c57602060031936011261033c5760ff8160209373ffffffffffffffffffffffffffffffffffffffff61064d6116db565b1681526019855220541690519015158152f35b50503461033c578160031936011261033c57602090600c549051908152f35b50503461033c578160031936011261033c57601254905160209160ff166106a5816116bb565b8152f35b5091903461033c57606060031936011261033c5782356024356044359267ffffffffffffffff80851161099557366023860112156109955784870135948186116109915736602487830101116109915760ff60015460081c161561096957601295865492600160ff851661071c816116bb565b0361094157600554908551906020820192835288878301528760608301523060808301524660a083015260a0825260c08201908282109082111761092e57916107c393916107cc96959388525190207f19457468657265756d205369676e6564204d6573736167653a0a3332000000008b52601c52896020603c8220928060246107a582611ae9565b966107b28c519889611a92565b828852018387013784010152611ed1565b90939193611f0d565b73ffffffffffffffffffffffffffffffffffffffff918280600354169116036109065760ff6006541660028110156108f35791887f66b4c63b506d3f7d40d6fd82d24dbb85059128e6ecbfd0c4bbfa8e36dad858ef96949260609694156000146108bc575087547fffffffffffffffffffffffffffffffffffffffffffffffffffffffffffff00ff1684861160081b61ff00161788555b8460135583601455600260ff1989541617885560115490816108a2575b50505060ff600554965460081c1692815193151584526020840152820152a280f35b826108b4936002541691541690611d8b565b878080610880565b7fffffffffffffffffffffffffffffffffffffffffffffffffffffffffffff00ff61ff00600954881160081b169116178855610863565b60248860218b634e487b7160e01b835252fd5b8783517f8baa579f000000000000000000000000000000000000000000000000000000008152fd5b60248b60418e634e487b7160e01b835252fd5b8985517f0174c447000000000000000000000000000000000000000000000000000000008152fd5b8783517f87138d5c000000000000000000000000000000000000000000000000000000008152fd5b8680fd5b8580fd5b50503461033c578160031936011261033c576020905160648152f35b50503461033c578160031936011261033c576020906014549051908152f35b50503461033c578160031936011261033c57602090600a549051908152f35b50503461033c57602060031936011261033c578060209273ffffffffffffffffffffffffffffffffffffffff610a276116db565b1681526015845220549051908152f35b503461031957826003193601126103195760ff60015460081c16156102f25760125460ff8116610a66816116bb565b610ad857600b5491824210610ab157507f04af8379e43958395d81bd8cb9755caff006537044ead89d4eaeec09e13bd97791600160ff1960209316176012556005549351908152a280f35b83517f5d0ace98000000000000000000000000000000000000000000000000000000008152fd5b5090517f3a67d481000000000000000000000000000000000000000000000000000000008152fd5b50503461033c578160031936011261033c57602090600d549051908152f35b50503461033c578160031936011261033c5760209073ffffffffffffffffffffffffffffffffffffffff60015460101c169051908152f35b50503461033c578160031936011261033c576020906013549051908152f35b50503461033c578160031936011261033c576020906007549051908152f35b50503461033c578160031936011261033c576020906010549051908152f35b50503461033c578160031936011261033c576020906005549051908152f35b50503461033c578160031936011261033c57602090600b549051908152f35b509134610c265780600319360112610c26575073ffffffffffffffffffffffffffffffffffffffff60209254169051908152f35b80fd5b50503461033c578160031936011261033c5760209060ff6001541690519015158152f35b50503461033c576020806003193601126103195760809273ffffffffffffffffffffffffffffffffffffffff610c816116db565b1681526015825282812054926016835280822054601784528180842054936018865220549382519586528501528301526060820152f35b50503461033c578160031936011261033c57602090600e549051908152f35b50346103195782600319360112610319576001549073ffffffffffffffffffffffffffffffffffffffff8260101c163303610d4c57507f62e78cea01bee320cd4e420270b5ea74000d11b0c9f74754ebdbfc544b05a25891600160ff19602093610d3f611b5e565b161760015551338152a180f35b82517f5fc483c5000000000000000000000000000000000000000000000000000000008152fd5b509034610319578260031936011261031957610d8d611b23565b60ff60015460081c1615610dab5782610da4611761565b6001815580f35b517f87138d5c000000000000000000000000000000000000000000000000000000008152fd5b50503461033c578160031936011261033c576020906009549051908152f35b50346103195782600319360112610319576001549073ffffffffffffffffffffffffffffffffffffffff8260101c163303610d4c5760ff821615610e6357507f5db9ee0a495bf2e6ff9c91a7834c1ba4fdd244a5e8aa4e537bd38aeae4b073aa9160ff196020921660015551338152a180f35b82517f8dfc202b000000000000000000000000000000000000000000000000000000008152fd5b50503461033c578160031936011261033c5760209073ffffffffffffffffffffffffffffffffffffffff600254169051908152f35b50503461033c57602060031936011261033c578060209273ffffffffffffffffffffffffffffffffffffffff610ef36116db565b1681526016845220549051908152f35b509034610319576101c06003193601126103195760243560028110156110d55760443592808410156110d157610124359173ffffffffffffffffffffffffffffffffffffffff9283811680910361099157610144358481168091036110cd5761016435928584168094036110c9576101843595861686036110c9576101a435976001549760ff8960081c166110a1575092859275ffffffffffffffffffffffffffffffffffffffff000095926101009998957fffffffffffffffffffff000000000000000000000000000000000000000000ff98356005557fffffffffffffffffffffffffffffffffffffffffffffffffffffffffffff000060ff61ff006006549361100e816116bb565b60081b1693169116171760065560643560075560843560085560a43560095560c435600a5560e435600b5561010435600c557fffffffffffffffffffffffff00000000000000000000000000000000000000009182600254161760025581600354161760035582541617905560101b169116171760015580600d5580600e5580600f5560105560ff196012541660125580f35b8690517f0dc149f0000000000000000000000000000000000000000000000000000000008152fd5b8880fd5b8780fd5b8480fd5b8380fd5b5091903461033c578160031936011261033c5760ff60065416905191600282101561110657602083838152f35b80602185634e487b7160e01b6024945252fd5b50503461033c578160031936011261033c57602090516202a3008152f35b50503461033c578160031936011261033c57602090516127108152f35b50503461033c578160031936011261033c576020906008549051908152f35b50503461033c57602060031936011261033c578060209273ffffffffffffffffffffffffffffffffffffffff6111a76116db565b1681526017845220549051908152f35b50503461033c578160031936011261033c5760209073ffffffffffffffffffffffffffffffffffffffff600354169051908152f35b50503461033c57602060031936011261033c578060209273ffffffffffffffffffffffffffffffffffffffff6112206116db565b1681526018845220549051908152f35b50503461033c578160031936011261033c5760209060ff60015460081c1690519015158152f35b509134610c265781600319360112610c2657611271611684565b60243590156112ca5761128a90600d54600e5490611d07565b905b6064820290828204606414831517156112b7576020846112b0612710850486611747565b9051908152f35b80601186634e487b7160e01b6024945252fd5b6112da90600e54600d5490611d07565b9061128c565b509134610c265781600319360112610c26576112fa611684565b90602435906064820290828204606414831517156113565760208585611324612710860487611747565b9015611340576112b090600e54600d5490611bf9565b51908152f35b61135090600d54600e5490611bf9565b9061133a565b80601187634e487b7160e01b6024945252fd5b50503461033c578160031936011261033c57600654905160209160081c60ff166106a5816116bb565b5091903461033c576113a336611698565b93916113ad611b23565b6113b5611b5e565b60ff60015460081c161561165c5760ff601254166113d2816116bb565b61163457600b5442101561160c5781156115e45773ffffffffffffffffffffffffffffffffffffffff600254169584516020977f23b872dd00000000000000000000000000000000000000000000000000000000898301523360248301523060448301528460648301526064825260a0820182811067ffffffffffffffff8211176115d15787526114639190611e00565b606483028381046064036115be5761271090049561148d6114848886611747565b97601154611754565b6011558215611562576114b5600e54600d546105226114ad8b8385611bf9565b9a8b93611754565b600d55338552601588528585206114cd888254611754565b90556114db87600f54611754565b600f55338552601788528585206114f3858254611754565b90555b861061153b57509060019291845191825285878301521515907f8f49d85b652ab6aee9c4c148236794aeba18ed0bdeee65f1c5753b84651335f3853392a35551908152f35b84517f8199f5f3000000000000000000000000000000000000000000000000000000008152fd5b611579600d54600e546103c56114ad8b8385611bf9565b600e5533855260168852858520611591888254611754565b905561159f87601054611754565b601055338552601888528585206115b7858254611754565b90556114f6565b602485601184634e487b7160e01b835252fd5b602487604186634e487b7160e01b835252fd5b8584517f1f2a2005000000000000000000000000000000000000000000000000000000008152fd5b8584517fe2c865df000000000000000000000000000000000000000000000000000000008152fd5b8584517f3a67d481000000000000000000000000000000000000000000000000000000008152fd5b8584517f87138d5c000000000000000000000000000000000000000000000000000000008152fd5b60043590811515820361169357565b600080fd5b600319606091011261169357600435801515810361169357906024359060443590565b600411156116c557565b634e487b7160e01b600052602160045260246000fd5b6004359073ffffffffffffffffffffffffffffffffffffffff8216820361169357565b8181029291811591840414171561171157565b634e487b7160e01b600052601160045260246000fd5b8115611731570490565b634e487b7160e01b600052601260045260246000fd5b9190820391821161171157565b9190820180921161171157565b60ff60038160125416611773816116bb565b146118d05760125490600281831661178a816116bb565b036118a657600090338252601960205260409281848420541661186b5760081c81161561189457338252601560205282822054915b821561186b57611812929161180d913381526019602052858120600160ff198254161790556117f3600d54600e5490611754565b9160125460081c16905060001461186257600f54926116fe565b611727565b90611836823373ffffffffffffffffffffffffffffffffffffffff60025416611d8b565b519081527fd8138f8a3f377c5259ca548e70e4c2de94f129f5a11036a15b69513cba2b426a60203392a2565b601054926116fe565b600484517f969bf728000000000000000000000000000000000000000000000000000000008152fd5b338252601660205282822054916117bf565b60046040517f1ff09bee000000000000000000000000000000000000000000000000000000008152fd5b906000913383526020601981526040918285205416611a69573384526017815261190582852054601883528386205490611754565b918215611a405733855260198252808520600160ff1982541617905573ffffffffffffffffffffffffffffffffffffffff60025416928151957f70a082310000000000000000000000000000000000000000000000000000000087523060048801528387602481885afa918215611a34578192611a02575b7fd8138f8a3f377c5259ca548e70e4c2de94f129f5a11036a15b69513cba2b426a959697506119bd6119b4600d54600e5490611754565b60115490611754565b9182156119f857506119d29261180d916116fe565b935b84806119e6575b5050519283523392a2565b6119f1913390611d8b565b38846119db565b92505050936119d4565b9150958381813d8311611a2d575b611a1a8183611a92565b810103126109915751949586959161197d565b503d611a10565b508251903d90823e3d90fd5b600490517f969bf728000000000000000000000000000000000000000000000000000000008152fd5b600482517f969bf728000000000000000000000000000000000000000000000000000000008152fd5b90601f7fffffffffffffffffffffffffffffffffffffffffffffffffffffffffffffffe0910116810190811067ffffffffffffffff821117611ad357604052565b634e487b7160e01b600052604160045260246000fd5b67ffffffffffffffff8111611ad357601f017fffffffffffffffffffffffffffffffffffffffffffffffffffffffffffffffe01660200190565b600260005414611b34576002600055565b60046040517f3ee5aeb5000000000000000000000000000000000000000000000000000000008152fd5b60ff60015416611b6a57565b60046040517fd93c0665000000000000000000000000000000000000000000000000000000008152fd5b15611b9b57565b60646040517f08c379a000000000000000000000000000000000000000000000000000000000815260206004820152601260248201527f43504d4d3a207a65726f207265736572766500000000000000000000000000006044820152fd5b918015611ca95782611c2d611c3392611c3995151580611ca0575b611c1d90611b94565b611c2785846116fe565b92611754565b90611727565b90611747565b908115611c4257565b60646040517f08c379a000000000000000000000000000000000000000000000000000000000815260206004820152601160248201527f43504d4d3a207a65726f206f75747075740000000000000000000000000000006044820152fd5b50841515611c14565b60646040517f08c379a000000000000000000000000000000000000000000000000000000000815260206004820152601060248201527f43504d4d3a207a65726f20696e707574000000000000000000000000000000006044820152fd5b918015611d2d5782611c2d611c3392611d2a95151580611ca057611c1d90611b94565b90565b60646040517f08c379a000000000000000000000000000000000000000000000000000000000815260206004820152601160248201527f43504d4d3a207a65726f207368617265730000000000000000000000000000006044820152fd5b9173ffffffffffffffffffffffffffffffffffffffff604051927fa9059cbb000000000000000000000000000000000000000000000000000000006020850152166024830152604482015260448152608081019181831067ffffffffffffffff841117611ad357611dfe92604052611e00565b565b73ffffffffffffffffffffffffffffffffffffffff1690611e58600080836020829551910182875af13d15611ec9573d90611e3a82611ae9565b91611e486040519384611a92565b82523d84602084013e5b8461207e565b908151918215159283611ea1575b505050611e705750565b602490604051907f5274afe70000000000000000000000000000000000000000000000000000000082526004820152fd5b81929350906020918101031261033c576020015190811591821503610c265750388080611e66565b606090611e52565b8151919060418303611f0257611efb92506020820151906060604084015193015160001a90611fe1565b9192909190565b505060009160029190565b611f16816116bb565b80611f1f575050565b611f28816116bb565b60018103611f5a5760046040517ff645eedf000000000000000000000000000000000000000000000000000000008152fd5b611f63816116bb565b60028103611f9c57602482604051907ffce698f70000000000000000000000000000000000000000000000000000000082526004820152fd5b80611fa86003926116bb565b14611fb05750565b602490604051907fd78bce0c0000000000000000000000000000000000000000000000000000000082526004820152fd5b91907f7fffffffffffffffffffffffffffffff5d576e7357a4501ddfe92f46681b20a0841161207257926020929160ff608095604051948552168484015260408301526060820152600092839182805260015afa1561206657805173ffffffffffffffffffffffffffffffffffffffff81161561205d57918190565b50809160019190565b604051903d90823e3d90fd5b50505060009160039190565b906120bd575080511561209357805190602001fd5b60046040517f1425ea42000000000000000000000000000000000000000000000000000000008152fd5b81511580612115575b6120ce575090565b60249073ffffffffffffffffffffffffffffffffffffffff604051917f9996b315000000000000000000000000000000000000000000000000000000008352166004820152fd5b50803b156120c656","linkReferences":{}},"methodIdentifiers":{"BPS()":"249d39e9","DISPUTE_GRACE()":"276a556e","FEE_BPS()":"bf333f2c","buy(bool,uint256,uint256)":"01a9812c","claim()":"4e71d92d","claimed(address)":"c884ef83","closeTime()":"627749e6","depositsNo(address)":"16b8b43a","depositsYes(address)":"1ba49019","dispute()":"f240f7c3","emergencyPause()":"51858e27","getState()":"1865c57d","getUserPosition(address)":"5b7c2dad","initialize(uint256,uint8,uint8,bytes32,bytes32,uint256,uint256,uint256,uint256,address,address,address,address,uint256)":"2ee91744","initialized()":"158ef93e","keywordA()":"8cbdbd5a","keywordB()":"2235cc31","marketId()":"6ed71ede","marketType()":"2dd48909","metricType()":"06a4b7e1","openTime()":"b4256888","oracleSigner()":"1709a61b","owner()":"8da5cb5b","paused()":"5c975abb","previewBuy(bool,uint256)":"0fea6245","previewSell(bool,uint256)":"158b70e6","protocolFeesCollected()":"cc08b834","requestSettlement()":"93b2a651","reserveNo()":"53aaf54c","reserveYes()":"8fb182aa","sell(bool,uint256,uint256)":"de254659","settlementDeadline()":"c5d6e87f","settlementValueA()":"8ccd2708","settlementValueB()":"b46c6065","sharesNo(address)":"3d99459d","sharesYes(address)":"a3cca7f2","state()":"c19d93fb","submitSettlement(uint256,uint256,bytes)":"bf5b2d88","threshold()":"42cde4e8","totalShareNo()":"85806b61","totalShareYes()":"e638357b","treasury()":"61d027b3","unpause()":"3f4ba83a","usdc()":"3e413bee","yesWon()":"cbee38dc"},"id":18}