{
  "_format": "hh-sol-artifact-1",
  "contractName": "MockUSDC",
  "sourceName": "contracts/MockUSDC.sol",
  "abi": [
    {
      "inputs": [],
      "stateMutability": "nonpayable",
      "type": "constructor"
    },
    {
      "inputs": [
        {
          "internalType": "address",
          "name": "spender",
          "type": "address"
        },
        {
          "internalType": "uint256",
          "name": "allowance",
          "type": "uint256"
        },
        {
          "internalType": "uint256",
          "name": "needed",
          "type": "uint256"
        }
      ],
      "name": "ERC20InsufficientAllowance",
      "type": "error"
    },
    {
      "inputs": [
        {
          "internalType": "address",
          "name": "sender",
          "type": "address"
        },
        {
          "internalType": "uint256",
          "name": "balance",
          "type": "uint256"
        },
        {
          "internalType": "uint256",
          "name": "needed",
          "type": "uint256"
        }
      ],
      "name": "ERC20InsufficientBalance",
      "type": "error"
    },
    {
      "inputs": [
        {
          "internalType": "address",
          "name": "approver",
          "type": "address"
        }
      ],
      "name": "ERC20InvalidApprover",
      "type": "error"
    },
    {
      "inputs": [
        {
          "internalType": "address",
          "name": "receiver",
          "type": "address"
        }
      ],
      "name": "ERC20InvalidReceiver",
      "type": "error"
    },
    {
      "inputs": [
        {
          "internalType": "address",
          "name": "sender",
          "type": "address"
        }
      ],
      "name": "ERC20InvalidSender",
      "type": "error"
    },
    {
      "inputs": [
        {
          "internalType": "address",
          "name": "spender",
          "type": "address"
        }
      ],
      "name": "ERC20InvalidSpender",
      "type": "error"
    },
    {
      "anonymous": false,
      "inputs": [
        {
          "indexed": true,
          "internalType": "address",
          "name": "owner",
          "type": "address"
        },
        {
          "indexed": true,
          "internalType": "address",
          "name": "spender",
          "type": "address"
        },
        {
          "indexed": false,
          "internalType": "uint256",
          "name": "value",
          "type": "uint256"
        }
      ],
      "name": "Approval",
      "type": "event"
    },
    {
      "anonymous": false,
      "inputs": [
        {
          "indexed": true,
          "internalType": "address",
          "name": "from",
          "type": "address"
        },
        {
          "indexed": true,
          "internalType": "address",
          "name": "to",
          "type": "address"
        },
        {
          "indexed": false,
          "internalType": "uint256",
          "name": "value",
          "type": "uint256"
        }
      ],
      "name": "Transfer",
      "type": "event"
    },
    {
      "inputs": [
        {
          "internalType": "address",
          "name": "owner",
          "type": "address"
        },
        {
          "internalType": "address",
          "name": "spender",
          "type": "address"
        }
      ],
      "name": "allowance",
      "outputs": [
        {
          "internalType": "uint256",
          "name": "",
          "type": "uint256"
        }
      ],
      "stateMutability": "view",
      "type": "function"
    },
    {
      "inputs": [
        {
          "internalType": "address",
          "name": "spender",
          "type": "address"
        },
        {
          "internalType": "uint256",
          "name": "value",
          "type": "uint256"
        }
      ],
      "name": "approve",
      "outputs": [
        {
          "internalType": "bool",
          "name": "",
          "type": "bool"
        }
      ],
      "stateMutability": "nonpayable",
      "type": "function"
    },
    {
      "inputs": [
        {
          "internalType": "address",
          "name": "account",
          "type": "address"
        }
      ],
      "name": "balanceOf",
      "outputs": [
        {
          "internalType": "uint256",
          "name": "",
          "type": "uint256"
        }
      ],
      "stateMutability": "view",
      "type": "function"
    },
    {
      "inputs": [],
      "name": "decimals",
      "outputs": [
        {
          "internalType": "uint8",
          "name": "",
          "type": "uint8"
        }
      ],
      "stateMutability": "pure",
      "type": "function"
    },
    {
      "inputs": [],
      "name": "faucet",
      "outputs": [],
      "stateMutability": "nonpayable",
      "type": "function"
    },
    {
      "inputs": [
        {
          "internalType": "address",
          "name": "to",
          "type": "address"
        },
        {
          "internalType": "uint256",
          "name": "amount",
          "type": "uint256"
        }
      ],
      "name": "mint",
      "outputs": [],
      "stateMutability": "nonpayable",
      "type": "function"
    },
    {
      "inputs": [],
      "name": "name",
      "outputs": [
        {
          "internalType": "string",
          "name": "",
          "type": "string"
        }
      ],
      "stateMutability": "view",
      "type": "function"
    },
    {
      "inputs": [],
      "name": "symbol",
      "outputs": [
        {
          "internalType": "string",
          "name": "",
          "type": "string"
        }
      ],
      "stateMutability": "view",
      "type": "function"
    },
    {
      "inputs": [],
      "name": "totalSupply",
      "outputs": [
        {
          "internalType": "uint256",
          "name": "",
          "type": "uint256"
        }
      ],
      "stateMutability": "view",
      "type": "function"
    },
    {
      "inputs": [
        {
          "internalType": "address",
          "name": "to",
          "type": "address"
        },
        {
          "internalType": "uint256",
          "name": "value",
          "type": "uint256"
        }
      ],
      "name": "transfer",
      "outputs": [
        {
          "internalType": "bool",
          "name": "",
          "type": "bool"
        }
      ],
      "stateMutability": "nonpayable",
      "type": "function"
    },
    {
      "inputs": [
        {
          "internalType": "address",
          "name": "from",
          "type": "address"
        },
        {
          "internalType": "address",
          "name": "to",
          "type": "address"
        },
        {
          "internalType": "uint256",
          "name": "value",
          "type": "uint256"
        }
      ],
      "name": "transferFrom",
      "outputs": [
        {
          "internalType": "bool",
          "name": "",
          "type": "bool"
        }
      ],
      "stateMutability": "nonpayable",
      "type": "function"
    }
  ],
  "bytecode": "0x608060405234801561001057600080fd5b50604051806040016040528060088152602001672aa9a21021b7b4b760c11b815250604051806040016040528060048152602001635553444360e01b815250816003908161005e9190610114565b50600461006b8282610114565b5050506101d3565b634e487b7160e01b600052604160045260246000fd5b600181811c9082168061009d57607f821691505b6020821081036100bd57634e487b7160e01b600052602260045260246000fd5b50919050565b601f82111561010f576000816000526020600020601f850160051c810160208610156100ec5750805b601f850160051c820191505b8181101561010b578281556001016100f8565b5050505b505050565b81516001600160401b0381111561012d5761012d610073565b6101418161013b8454610089565b846100c3565b602080601f831160018114610176576000841561015e5750858301515b600019600386901b1c1916600185901b17855561010b565b600085815260208120601f198616915b828110156101a557888601518255948401946001909101908401610186565b50858210156101c35787850151600019600388901b60f8161c191681555b5050505050600190811b01905550565b6107aa806101e26000396000f3fe608060405234801561001057600080fd5b50600436106100a95760003560e01c806340c10f191161007157806340c10f191461012357806370a082311461013857806395d89b4114610161578063a9059cbb14610169578063dd62ed3e1461017c578063de5f72fd146101b557600080fd5b806306fdde03146100ae578063095ea7b3146100cc57806318160ddd146100ef57806323b872dd14610101578063313ce56714610114575b600080fd5b6100b66101bd565b6040516100c391906105f3565b60405180910390f35b6100df6100da36600461065e565b61024f565b60405190151581526020016100c3565b6002545b6040519081526020016100c3565b6100df61010f366004610688565b610269565b604051600681526020016100c3565b61013661013136600461065e565b61028d565b005b6100f36101463660046106c4565b6001600160a01b031660009081526020819052604090205490565b6100b661029b565b6100df61017736600461065e565b6102aa565b6100f361018a3660046106e6565b6001600160a01b03918216600090815260016020908152604080832093909416825291909152205490565b6101366102b8565b6060600380546101cc90610719565b80601f01602080910402602001604051908101604052809291908181526020018280546101f890610719565b80156102455780601f1061021a57610100808354040283529160200191610245565b820191906000526020600020905b81548152906001019060200180831161022857829003601f168201915b5050505050905090565b60003361025d8185856102c9565b60019150505b92915050565b6000336102778582856102db565b61028285858561035f565b506001949350505050565b61029782826103be565b5050565b6060600480546101cc90610719565b60003361025d81858561035f565b6102c7336402540be4006103be565b565b6102d683838360016103f4565b505050565b6001600160a01b03838116600090815260016020908152604080832093861683529290522054600019811015610359578181101561034a57604051637dc7a0d960e11b81526001600160a01b038416600482015260248101829052604481018390526064015b60405180910390fd5b610359848484840360006103f4565b50505050565b6001600160a01b03831661038957604051634b637e8f60e11b815260006004820152602401610341565b6001600160a01b0382166103b35760405163ec442f0560e01b815260006004820152602401610341565b6102d68383836104c9565b6001600160a01b0382166103e85760405163ec442f0560e01b815260006004820152602401610341565b610297600083836104c9565b6001600160a01b03841661041e5760405163e602df0560e01b815260006004820152602401610341565b6001600160a01b03831661044857604051634a1406b160e11b815260006004820152602401610341565b6001600160a01b038085166000908152600160209081526040808320938716835292905220829055801561035957826001600160a01b0316846001600160a01b03167f8c5be1e5ebec7d5bd14f71427d1e84f3dd0314c0f7b2291e5b200ac8c7c3b925846040516104bb91815260200190565b60405180910390a350505050565b6001600160a01b0383166104f45780600260008282546104e99190610753565b909155506105669050565b6001600160a01b038316600090815260208190526040902054818110156105475760405163391434e360e21b81526001600160a01b03851660048201526024810182905260448101839052606401610341565b6001600160a01b03841660009081526020819052604090209082900390555b6001600160a01b038216610582576002805482900390556105a1565b6001600160a01b03821660009081526020819052604090208054820190555b816001600160a01b0316836001600160a01b03167fddf252ad1be2c89b69c2b068fc378daa952ba7f163c4a11628f55a4df523b3ef836040516105e691815260200190565b60405180910390a3505050565b60006020808352835180602085015260005b8181101561062157858101830151858201604001528201610605565b506000604082860101526040601f19601f8301168501019250505092915050565b80356001600160a01b038116811461065957600080fd5b919050565b6000806040838503121561067157600080fd5b61067a83610642565b946020939093013593505050565b60008060006060848603121561069d57600080fd5b6106a684610642565b92506106b460208501610642565b9150604084013590509250925092565b6000602082840312156106d657600080fd5b6106df82610642565b9392505050565b600080604083850312156106f957600080fd5b61070283610642565b915061071060208401610642565b90509250929050565b600181811c9082168061072d57607f821691505b60208210810361074d57634e487b7160e01b600052602260045260246000fd5b50919050565b8082018082111561026357634e487b7160e01b600052601160045260246000fdfea2646970667358221220edaea0f72a133874b4a131d9b38022a1f072ad3db7ee4a05e4bd803e91e5371164736f6c63430008180033",
  "linkReferences": {},
  "deployedLinkReferences": {}
}