{
  "_format": "hh-sol-artifact-1",
  "contractName": "OPickMarket",
  "sourceName": "contracts/OPickMarket.sol",
  "abi": [
    {
      "inputs": [
        {
          "internalType": "address",
          "name": "_usdc",
          "type": "address"
        },
        {
          "internalType": "address",
          "name": "_creator",
          "type": "address"
        },
        {
          "internalType": "string",
          "name": "_topic",
          "type": "string"
        },
        {
          "internalType": "string",
          "name": "_sideA",
          "type": "string"
        },
        {
          "internalType": "string",
          "name": "_sideB",
          "type": "string"
        },
        {
          "internalType": "string",
          "name": "_category",
          "type": "string"
        },
        {
          "internalType": "uint256",
          "name": "_initRes",
          "type": "uint256"
        }
      ],
      "stateMutability": "nonpayable",
      "type": "constructor"
    },
    {
      "inputs": [],
      "name": "ReentrancyGuardReentrantCall",
      "type": "error"
    },
    {
      "inputs": [
        {
          "internalType": "address",
          "name": "token",
          "type": "address"
        }
      ],
      "name": "SafeERC20FailedOperation",
      "type": "error"
    },
    {
      "anonymous": false,
      "inputs": [
        {
          "indexed": true,
          "internalType": "address",
          "name": "user",
          "type": "address"
        },
        {
          "indexed": true,
          "internalType": "bool",
          "name": "isSideA",
          "type": "bool"
        },
        {
          "indexed": false,
          "internalType": "uint256",
          "name": "usdcIn",
          "type": "uint256"
        },
        {
          "indexed": false,
          "internalType": "uint256",
          "name": "sharesOut",
          "type": "uint256"
        },
        {
          "indexed": false,
          "internalType": "uint256",
          "name": "priceAfter",
          "type": "uint256"
        }
      ],
      "name": "Buy",
      "type": "event"
    },
    {
      "anonymous": false,
      "inputs": [
        {
          "indexed": true,
          "internalType": "address",
          "name": "user",
          "type": "address"
        },
        {
          "indexed": true,
          "internalType": "bool",
          "name": "isSideA",
          "type": "bool"
        },
        {
          "indexed": false,
          "internalType": "uint256",
          "name": "sharesIn",
          "type": "uint256"
        },
        {
          "indexed": false,
          "internalType": "uint256",
          "name": "usdcOut",
          "type": "uint256"
        },
        {
          "indexed": false,
          "internalType": "uint256",
          "name": "priceAfter",
          "type": "uint256"
        }
      ],
      "name": "Sell",
      "type": "event"
    },
    {
      "inputs": [],
      "name": "CREATOR_BPS",
      "outputs": [
        {
          "internalType": "uint256",
          "name": "",
          "type": "uint256"
        }
      ],
      "stateMutability": "view",
      "type": "function"
    },
    {
      "inputs": [],
      "name": "PRECISION",
      "outputs": [
        {
          "internalType": "uint256",
          "name": "",
          "type": "uint256"
        }
      ],
      "stateMutability": "view",
      "type": "function"
    },
    {
      "inputs": [],
      "name": "SPREAD_BPS",
      "outputs": [
        {
          "internalType": "uint256",
          "name": "",
          "type": "uint256"
        }
      ],
      "stateMutability": "view",
      "type": "function"
    },
    {
      "inputs": [
        {
          "internalType": "uint256",
          "name": "amt",
          "type": "uint256"
        }
      ],
      "name": "buyA",
      "outputs": [
        {
          "internalType": "uint256",
          "name": "out",
          "type": "uint256"
        }
      ],
      "stateMutability": "nonpayable",
      "type": "function"
    },
    {
      "inputs": [
        {
          "internalType": "uint256",
          "name": "amt",
          "type": "uint256"
        }
      ],
      "name": "buyB",
      "outputs": [
        {
          "internalType": "uint256",
          "name": "out",
          "type": "uint256"
        }
      ],
      "stateMutability": "nonpayable",
      "type": "function"
    },
    {
      "inputs": [],
      "name": "category",
      "outputs": [
        {
          "internalType": "string",
          "name": "",
          "type": "string"
        }
      ],
      "stateMutability": "view",
      "type": "function"
    },
    {
      "inputs": [],
      "name": "createdAt",
      "outputs": [
        {
          "internalType": "uint256",
          "name": "",
          "type": "uint256"
        }
      ],
      "stateMutability": "view",
      "type": "function"
    },
    {
      "inputs": [],
      "name": "creator",
      "outputs": [
        {
          "internalType": "address",
          "name": "",
          "type": "address"
        }
      ],
      "stateMutability": "view",
      "type": "function"
    },
    {
      "inputs": [],
      "name": "creatorEarnings",
      "outputs": [
        {
          "internalType": "uint256",
          "name": "",
          "type": "uint256"
        }
      ],
      "stateMutability": "view",
      "type": "function"
    },
    {
      "inputs": [],
      "name": "k",
      "outputs": [
        {
          "internalType": "uint256",
          "name": "",
          "type": "uint256"
        }
      ],
      "stateMutability": "view",
      "type": "function"
    },
    {
      "inputs": [],
      "name": "priceA",
      "outputs": [
        {
          "internalType": "uint256",
          "name": "",
          "type": "uint256"
        }
      ],
      "stateMutability": "view",
      "type": "function"
    },
    {
      "inputs": [],
      "name": "priceB",
      "outputs": [
        {
          "internalType": "uint256",
          "name": "",
          "type": "uint256"
        }
      ],
      "stateMutability": "view",
      "type": "function"
    },
    {
      "inputs": [],
      "name": "reserveA",
      "outputs": [
        {
          "internalType": "uint256",
          "name": "",
          "type": "uint256"
        }
      ],
      "stateMutability": "view",
      "type": "function"
    },
    {
      "inputs": [],
      "name": "reserveB",
      "outputs": [
        {
          "internalType": "uint256",
          "name": "",
          "type": "uint256"
        }
      ],
      "stateMutability": "view",
      "type": "function"
    },
    {
      "inputs": [
        {
          "internalType": "uint256",
          "name": "shares",
          "type": "uint256"
        }
      ],
      "name": "sellA",
      "outputs": [
        {
          "internalType": "uint256",
          "name": "usdcOut",
          "type": "uint256"
        }
      ],
      "stateMutability": "nonpayable",
      "type": "function"
    },
    {
      "inputs": [
        {
          "internalType": "uint256",
          "name": "shares",
          "type": "uint256"
        }
      ],
      "name": "sellB",
      "outputs": [
        {
          "internalType": "uint256",
          "name": "usdcOut",
          "type": "uint256"
        }
      ],
      "stateMutability": "nonpayable",
      "type": "function"
    },
    {
      "inputs": [
        {
          "internalType": "address",
          "name": "",
          "type": "address"
        }
      ],
      "name": "sharesA",
      "outputs": [
        {
          "internalType": "uint256",
          "name": "",
          "type": "uint256"
        }
      ],
      "stateMutability": "view",
      "type": "function"
    },
    {
      "inputs": [
        {
          "internalType": "address",
          "name": "",
          "type": "address"
        }
      ],
      "name": "sharesB",
      "outputs": [
        {
          "internalType": "uint256",
          "name": "",
          "type": "uint256"
        }
      ],
      "stateMutability": "view",
      "type": "function"
    },
    {
      "inputs": [],
      "name": "sideAName",
      "outputs": [
        {
          "internalType": "string",
          "name": "",
          "type": "string"
        }
      ],
      "stateMutability": "view",
      "type": "function"
    },
    {
      "inputs": [],
      "name": "sideBName",
      "outputs": [
        {
          "internalType": "string",
          "name": "",
          "type": "string"
        }
      ],
      "stateMutability": "view",
      "type": "function"
    },
    {
      "inputs": [],
      "name": "topic",
      "outputs": [
        {
          "internalType": "string",
          "name": "",
          "type": "string"
        }
      ],
      "stateMutability": "view",
      "type": "function"
    },
    {
      "inputs": [],
      "name": "totalSharesA",
      "outputs": [
        {
          "internalType": "uint256",
          "name": "",
          "type": "uint256"
        }
      ],
      "stateMutability": "view",
      "type": "function"
    },
    {
      "inputs": [],
      "name": "totalSharesB",
      "outputs": [
        {
          "internalType": "uint256",
          "name": "",
          "type": "uint256"
        }
      ],
      "stateMutability": "view",
      "type": "function"
    },
    {
      "inputs": [],
      "name": "totalVolume",
      "outputs": [
        {
          "internalType": "uint256",
          "name": "",
          "type": "uint256"
        }
      ],
      "stateMutability": "view",
      "type": "function"
    },
    {
      "inputs": [],
      "name": "usdc",
      "outputs": [
        {
          "internalType": "contract IERC20",
          "name": "",
          "type": "address"
        }
      ],
      "stateMutability": "view",
      "type": "function"
    }
  ],
  "bytecode": "0x60e06040523480156200001157600080fd5b506040516200132b3803806200132b8339810160408190526200003491620001b7565b60017f9b779b17422d0df92223018b32b4d1fa46e071723d6817e2486d003becc55f00556001600160a01b03808816608052861660a052600062000079868262000331565b50600162000088858262000331565b50600262000097848262000331565b506003620000a6838262000331565b5060048190556005819055620000bd8180620003fd565b60c052505042600c5550620004299350505050565b80516001600160a01b0381168114620000ea57600080fd5b919050565b634e487b7160e01b600052604160045260246000fd5b600082601f8301126200011757600080fd5b81516001600160401b0380821115620001345762000134620000ef565b604051601f8301601f19908116603f011681019082821181831017156200015f576200015f620000ef565b81604052838152602092508660208588010111156200017d57600080fd5b600091505b83821015620001a1578582018301518183018401529082019062000182565b6000602085830101528094505050505092915050565b600080600080600080600060e0888a031215620001d357600080fd5b620001de88620000d2565b9650620001ee60208901620000d2565b60408901519096506001600160401b03808211156200020c57600080fd5b6200021a8b838c0162000105565b965060608a01519150808211156200023157600080fd5b6200023f8b838c0162000105565b955060808a01519150808211156200025657600080fd5b620002648b838c0162000105565b945060a08a01519150808211156200027b57600080fd5b506200028a8a828b0162000105565b92505060c0880151905092959891949750929550565b600181811c90821680620002b557607f821691505b602082108103620002d657634e487b7160e01b600052602260045260246000fd5b50919050565b601f8211156200032c576000816000526020600020601f850160051c81016020861015620003075750805b601f850160051c820191505b81811015620003285782815560010162000313565b5050505b505050565b81516001600160401b038111156200034d576200034d620000ef565b62000365816200035e8454620002a0565b84620002dc565b602080601f8311600181146200039d5760008415620003845750858301515b600019600386901b1c1916600185901b17855562000328565b600085815260208120601f198616915b82811015620003ce57888601518255948401946001909101908401620003ad565b5085821015620003ed5787850151600019600388901b60f8161c191681555b5050505050600190811b01905550565b80820281158282048414176200042357634e487b7160e01b600052601160045260246000fd5b92915050565b60805160a05160c051610e7e620004ad600039600081816102ce015281816103a6015281816105df0152818161073f015261097901526000818161017d0152818161086c0152610aa6015260008181610201015281816103640152818161059d0152818161084a0152818161089e01528181610a840152610ad80152610e7e6000f3fe608060405234801561001057600080fd5b50600436106101735760003560e01c80638a65eccb116100de578063b635356711610097578063cf09e0d011610071578063cf09e0d014610313578063dc5fa6c51461031c578063dc6acd0214610325578063ef430aa61461033857600080fd5b8063b6353567146102f0578063bf63a577146102f8578063c1f5399f1461030057600080fd5b80638a65eccb146102815780638eb1a4ad1461028a578063a06d363c1461029f578063a355f897146102b2578063aaf5eb68146102ba578063b4f40c61146102c957600080fd5b8063558d43a011610130578063558d43a01461022c57806358e60fca1461023f5780635d057f12146102475780635f81a57c146102505780637759414e1461025957806387de74e61461026157600080fd5b806302d05d3f1461017857806319e36f3b146101bc578063352cc4dd146101d357806335b72d97146101f35780633e413bee146101fc5780634590456714610223575b600080fd5b61019f7f000000000000000000000000000000000000000000000000000000000000000081565b6040516001600160a01b0390911681526020015b60405180910390f35b6101c560055481565b6040519081526020016101b3565b6101c56101e1366004610cdb565b60076020526000908152604090205481565b6101c5600b5481565b61019f7f000000000000000000000000000000000000000000000000000000000000000081565b6101c5610bb881565b6101c561023a366004610d0b565b610340565b6101c56104b4565b6101c560085481565b6101c5600a5481565b6101c5603281565b6101c561026f366004610cdb565b60066020526000908152604090205481565b6101c560095481565b6102926104eb565b6040516101b39190610d24565b6101c56102ad366004610d0b565b610579565b6102926106b1565b6101c5670de0b6b3a764000081565b6101c57f000000000000000000000000000000000000000000000000000000000000000081565b6101c56106be565b6102926106e6565b6101c561030e366004610d0b565b6106f3565b6101c5600c5481565b6101c560045481565b6101c5610333366004610d0b565b61092d565b610292610b2d565b600061034a610b3a565b6000821161035757600080fd5b61038c6001600160a01b037f000000000000000000000000000000000000000000000000000000000000000016333085610b56565b60008260045461039c9190610d89565b905060006103ca827f0000000000000000000000000000000000000000000000000000000000000000610da2565b9050806005546103da9190610dc4565b9250600083116103e957600080fd5b600482905560058190553360009081526007602052604081208054859290610412908490610d89565b92505081905550826009600082825461042b9190610d89565b9250508190555083600a60008282546104449190610d89565b9091555060009050337ff83f2b306d0785a8fd91972b82022c61df48599aa76e1fbaef976390424f9f2386866104786106be565b6040805193845260208401929092529082015260600160405180910390a350506104af6001600080516020610e2983398151915255565b919050565b60006005546004546104c69190610d89565b670de0b6b3a76400006004546104dc9190610dd7565b6104e69190610da2565b905090565b600180546104f890610dee565b80601f016020809104026020016040519081016040528092919081815260200182805461052490610dee565b80156105715780601f1061054657610100808354040283529160200191610571565b820191906000526020600020905b81548152906001019060200180831161055457829003601f168201915b505050505081565b6000610583610b3a565b6000821161059057600080fd5b6105c56001600160a01b037f000000000000000000000000000000000000000000000000000000000000000016333085610b56565b6000826005546105d59190610d89565b90506000610603827f0000000000000000000000000000000000000000000000000000000000000000610da2565b9050806004546106139190610dc4565b92506000831161062257600080fd5b60048190556005829055336000908152600660205260408120805485929061064b908490610d89565b9250508190555082600860008282546106649190610d89565b9250508190555083600a600082825461067d9190610d89565b9091555060019050337ff83f2b306d0785a8fd91972b82022c61df48599aa76e1fbaef976390424f9f2386866104786106be565b600280546104f890610dee565b60006005546004546106d09190610d89565b670de0b6b3a76400006005546104dc9190610dd7565b600080546104f890610dee565b60006106fd610b3a565b60008211801561071c5750336000908152600760205260409020548211155b61072557600080fd5b6000826005546107359190610d89565b90506000610763827f0000000000000000000000000000000000000000000000000000000000000000610da2565b90506000816004546107759190610dc4565b60048390556005849055336000908152600760205260408120805492935087929091906107a3908490610dc4565b9250508190555084600960008282546107bc9190610dc4565b90915550600090506127106107d2603284610dd7565b6107dc9190610da2565b905060006127106107ef610bb884610dd7565b6107f99190610da2565b90506108058284610dc4565b955082600a60008282546108199190610d89565b9250508190555080600b60008282546108329190610d89565b90915550508015610891576108916001600160a01b037f0000000000000000000000000000000000000000000000000000000000000000167f000000000000000000000000000000000000000000000000000000000000000083610b97565b6108c56001600160a01b037f0000000000000000000000000000000000000000000000000000000000000000163388610b97565b6000337f5c7fc5fe75305fafcd56d45a72aa79d07ce6f22966e5c0b8ddefcbe6ae5f393089896108f36106be565b6040805193845260208401929092529082015260600160405180910390a350505050506104af6001600080516020610e2983398151915255565b6000610937610b3a565b6000821180156109565750336000908152600660205260409020548211155b61095f57600080fd5b60008260045461096f9190610d89565b9050600061099d827f0000000000000000000000000000000000000000000000000000000000000000610da2565b90506000816005546109af9190610dc4565b60048490556005839055336000908152600660205260408120805492935087929091906109dd908490610dc4565b9250508190555084600860008282546109f69190610dc4565b9091555060009050612710610a0c603284610dd7565b610a169190610da2565b90506000612710610a29610bb884610dd7565b610a339190610da2565b9050610a3f8284610dc4565b955082600a6000828254610a539190610d89565b9250508190555080600b6000828254610a6c9190610d89565b90915550508015610acb57610acb6001600160a01b037f0000000000000000000000000000000000000000000000000000000000000000167f000000000000000000000000000000000000000000000000000000000000000083610b97565b610aff6001600160a01b037f0000000000000000000000000000000000000000000000000000000000000000163388610b97565b6001337f5c7fc5fe75305fafcd56d45a72aa79d07ce6f22966e5c0b8ddefcbe6ae5f393089896108f36106be565b600380546104f890610dee565b610b42610bd1565b6002600080516020610e2983398151915255565b610b64848484846001610c03565b610b9157604051635274afe760e01b81526001600160a01b03851660048201526024015b60405180910390fd5b50505050565b610ba48383836001610c75565b610bcc57604051635274afe760e01b81526001600160a01b0384166004820152602401610b88565b505050565b600080516020610e2983398151915254600203610c0157604051633ee5aeb560e01b815260040160405180910390fd5b565b6040516323b872dd60e01b60008181526001600160a01b038781166004528616602452604485905291602083606481808c5af192506001600051148316610c63578383151615610c56573d6000823e3d81fd5b6000883b113d1516831692505b60405250600060605295945050505050565b60405163a9059cbb60e01b60008181526001600160a01b038616600452602485905291602083604481808b5af192506001600051148316610ccf578383151615610cc2573d6000823e3d81fd5b6000873b113d1516831692505b60405250949350505050565b600060208284031215610ced57600080fd5b81356001600160a01b0381168114610d0457600080fd5b9392505050565b600060208284031215610d1d57600080fd5b5035919050565b60006020808352835180602085015260005b81811015610d5257858101830151858201604001528201610d36565b506000604082860101526040601f19601f8301168501019250505092915050565b634e487b7160e01b600052601160045260246000fd5b80820180821115610d9c57610d9c610d73565b92915050565b600082610dbf57634e487b7160e01b600052601260045260246000fd5b500490565b81810381811115610d9c57610d9c610d73565b8082028115828204841417610d9c57610d9c610d73565b600181811c90821680610e0257607f821691505b602082108103610e2257634e487b7160e01b600052602260045260246000fd5b5091905056fe9b779b17422d0df92223018b32b4d1fa46e071723d6817e2486d003becc55f00a26469706673582212201bd765cf87fc8370f29d1fb2027be2fb515b69922392b6569907cf9b0c74140064736f6c63430008180033",
  "linkReferences": {},
  "deployedLinkReferences": {}
}