{
  "_format": "hh-sol-artifact-1",
  "contractName": "OPickFactory",
  "sourceName": "contracts/OPickFactory.sol",
  "abi": [
    {
      "inputs": [
        {
          "internalType": "address",
          "name": "_usdc",
          "type": "address"
        }
      ],
      "stateMutability": "nonpayable",
      "type": "constructor"
    },
    {
      "inputs": [
        {
          "internalType": "address",
          "name": "owner",
          "type": "address"
        }
      ],
      "name": "OwnableInvalidOwner",
      "type": "error"
    },
    {
      "inputs": [
        {
          "internalType": "address",
          "name": "account",
          "type": "address"
        }
      ],
      "name": "OwnableUnauthorizedAccount",
      "type": "error"
    },
    {
      "inputs": [
        {
          "internalType": "address",
          "name": "token",
          "type": "address"
        }
      ],
      "name": "SafeERC20FailedOperation",
      "type": "error"
    },
    {
      "anonymous": false,
      "inputs": [
        {
          "indexed": true,
          "internalType": "address",
          "name": "market",
          "type": "address"
        },
        {
          "indexed": true,
          "internalType": "address",
          "name": "creator",
          "type": "address"
        },
        {
          "indexed": false,
          "internalType": "string",
          "name": "topic",
          "type": "string"
        },
        {
          "indexed": false,
          "internalType": "string",
          "name": "sideA",
          "type": "string"
        },
        {
          "indexed": false,
          "internalType": "string",
          "name": "sideB",
          "type": "string"
        },
        {
          "indexed": false,
          "internalType": "string",
          "name": "category",
          "type": "string"
        },
        {
          "indexed": false,
          "internalType": "uint256",
          "name": "index",
          "type": "uint256"
        }
      ],
      "name": "MarketCreated",
      "type": "event"
    },
    {
      "anonymous": false,
      "inputs": [
        {
          "indexed": true,
          "internalType": "address",
          "name": "previousOwner",
          "type": "address"
        },
        {
          "indexed": true,
          "internalType": "address",
          "name": "newOwner",
          "type": "address"
        }
      ],
      "name": "OwnershipTransferred",
      "type": "event"
    },
    {
      "inputs": [],
      "name": "INITIAL_RESERVE",
      "outputs": [
        {
          "internalType": "uint256",
          "name": "",
          "type": "uint256"
        }
      ],
      "stateMutability": "view",
      "type": "function"
    },
    {
      "inputs": [
        {
          "internalType": "string",
          "name": "_topic",
          "type": "string"
        },
        {
          "internalType": "string",
          "name": "_sideA",
          "type": "string"
        },
        {
          "internalType": "string",
          "name": "_sideB",
          "type": "string"
        },
        {
          "internalType": "string",
          "name": "_category",
          "type": "string"
        }
      ],
      "name": "createMarket",
      "outputs": [
        {
          "internalType": "address",
          "name": "addr",
          "type": "address"
        }
      ],
      "stateMutability": "nonpayable",
      "type": "function"
    },
    {
      "inputs": [],
      "name": "creationFee",
      "outputs": [
        {
          "internalType": "uint256",
          "name": "",
          "type": "uint256"
        }
      ],
      "stateMutability": "view",
      "type": "function"
    },
    {
      "inputs": [
        {
          "internalType": "address",
          "name": "",
          "type": "address"
        },
        {
          "internalType": "uint256",
          "name": "",
          "type": "uint256"
        }
      ],
      "name": "creatorMarkets",
      "outputs": [
        {
          "internalType": "address",
          "name": "",
          "type": "address"
        }
      ],
      "stateMutability": "view",
      "type": "function"
    },
    {
      "inputs": [
        {
          "internalType": "address",
          "name": "c",
          "type": "address"
        }
      ],
      "name": "getCreatorMarkets",
      "outputs": [
        {
          "internalType": "address[]",
          "name": "",
          "type": "address[]"
        }
      ],
      "stateMutability": "view",
      "type": "function"
    },
    {
      "inputs": [
        {
          "internalType": "uint256",
          "name": "off",
          "type": "uint256"
        },
        {
          "internalType": "uint256",
          "name": "lim",
          "type": "uint256"
        }
      ],
      "name": "getMarkets",
      "outputs": [
        {
          "internalType": "address[]",
          "name": "r",
          "type": "address[]"
        }
      ],
      "stateMutability": "view",
      "type": "function"
    },
    {
      "inputs": [
        {
          "internalType": "address",
          "name": "",
          "type": "address"
        }
      ],
      "name": "isMarket",
      "outputs": [
        {
          "internalType": "bool",
          "name": "",
          "type": "bool"
        }
      ],
      "stateMutability": "view",
      "type": "function"
    },
    {
      "inputs": [
        {
          "internalType": "uint256",
          "name": "",
          "type": "uint256"
        }
      ],
      "name": "markets",
      "outputs": [
        {
          "internalType": "address",
          "name": "",
          "type": "address"
        }
      ],
      "stateMutability": "view",
      "type": "function"
    },
    {
      "inputs": [],
      "name": "owner",
      "outputs": [
        {
          "internalType": "address",
          "name": "",
          "type": "address"
        }
      ],
      "stateMutability": "view",
      "type": "function"
    },
    {
      "inputs": [],
      "name": "renounceOwnership",
      "outputs": [],
      "stateMutability": "nonpayable",
      "type": "function"
    },
    {
      "inputs": [
        {
          "internalType": "uint256",
          "name": "f",
          "type": "uint256"
        }
      ],
      "name": "setCreationFee",
      "outputs": [],
      "stateMutability": "nonpayable",
      "type": "function"
    },
    {
      "inputs": [],
      "name": "totalMarkets",
      "outputs": [
        {
          "internalType": "uint256",
          "name": "",
          "type": "uint256"
        }
      ],
      "stateMutability": "view",
      "type": "function"
    },
    {
      "inputs": [
        {
          "internalType": "address",
          "name": "newOwner",
          "type": "address"
        }
      ],
      "name": "transferOwnership",
      "outputs": [],
      "stateMutability": "nonpayable",
      "type": "function"
    },
    {
      "inputs": [],
      "name": "usdc",
      "outputs": [
        {
          "internalType": "contract IERC20",
          "name": "",
          "type": "address"
        }
      ],
      "stateMutability": "view",
      "type": "function"
    },
    {
      "inputs": [
        {
          "internalType": "address",
          "name": "to",
          "type": "address"
        }
      ],
      "name": "withdrawFees",
      "outputs": [],
      "stateMutability": "nonpayable",
      "type": "function"
    }
  ],
  "bytecode": "0x60a0604052624c4b4060015534801561001757600080fd5b506040516121ae3803806121ae833981016040819052610036916100c7565b338061005c57604051631e4fbdf760e01b81526000600482015260240160405180910390fd5b61006581610077565b506001600160a01b03166080526100f7565b600080546001600160a01b038381166001600160a01b0319831681178455604051919092169283917f8be0079c531659141344cd1fd0a4f28419497f9722a3daafe3b4186f6b6457e09190a35050565b6000602082840312156100d957600080fd5b81516001600160a01b03811681146100f057600080fd5b9392505050565b60805161208061012e6000396000818161012d015281816102ba01528181610347015281816105d2015261060101526120806000f3fe60806040523480156200001157600080fd5b5060043610620001095760003560e01c806396dcf74e11620000a3578063dce0b4e4116200006e578063dce0b4e41462000254578063e7d4c75e146200025e578063f2fde38b146200026a578063f7429133146200028157600080fd5b806396dcf74e14620001f8578063b1283e77146200020f578063b7d862251462000226578063ba1f5195146200023d57600080fd5b8063715018a611620000e4578063715018a614620001a357806380968d4814620001ad5780638162486b14620001d35780638da5cb5b14620001e657600080fd5b8063164e68de146200010e5780633e413bee14620001275780636ec934da146200016c575b600080fd5b620001256200011f36600462000972565b62000298565b005b6200014f7f000000000000000000000000000000000000000000000000000000000000000081565b6040516001600160a01b0390911681526020015b60405180910390f35b620001926200017d36600462000972565b60036020526000908152604090205460ff1681565b604051901515815260200162000163565b6200012562000373565b620001c4620001be36600462000997565b6200038b565b604051620001639190620009ba565b6002545b60405190815260200162000163565b6000546001600160a01b03166200014f565b620001c46200020936600462000972565b62000481565b6200014f6200022036600462000a09565b620004f9565b620001256200023736600462000a09565b62000524565b6200014f6200024e36600462000a23565b62000533565b620001d760015481565b620001d7633b9aca0081565b620001256200027b36600462000972565b6200056c565b6200014f6200029236600462000a9c565b620005b4565b620002a26200076e565b6040516370a0823160e01b81523060048201526000907f00000000000000000000000000000000000000000000000000000000000000006001600160a01b0316906370a0823190602401602060405180830381865afa1580156200030a573d6000803e3d6000fd5b505050506040513d601f19601f8201168201806040525081019062000330919062000b6d565b905080156200036f576200036f6001600160a01b037f00000000000000000000000000000000000000000000000000000000000000001683836200079d565b5050565b6200037d6200076e565b620003896000620007db565b565b606060006200039b838562000b9d565b600254909150811115620003ae57506002545b620003ba848262000bb9565b67ffffffffffffffff811115620003d557620003d562000bcf565b604051908082528060200260200182016040528015620003ff578160200160208202803683370190505b509150835b8181101562000479576002818154811062000423576200042362000be5565b6000918252602090912001546001600160a01b03168362000445878462000bb9565b8151811062000458576200045862000be5565b6001600160a01b039092166020928302919091019091015260010162000404565b505092915050565b6001600160a01b038116600090815260046020908152604091829020805483518184028101840190945280845260609392830182828015620004ed57602002820191906000526020600020905b81546001600160a01b03168152600190910190602001808311620004ce575b50505050509050919050565b600281815481106200050a57600080fd5b6000918252602090912001546001600160a01b0316905081565b6200052e6200076e565b600155565b600460205281600052604060002081815481106200055057600080fd5b6000918252602090912001546001600160a01b03169150829050565b620005766200076e565b6001600160a01b038116620005a657604051631e4fbdf760e01b8152600060048201526024015b60405180910390fd5b620005b181620007db565b50565b60015460009015620005fd57600154620005fd906001600160a01b037f00000000000000000000000000000000000000000000000000000000000000001690339030906200082b565b60007f0000000000000000000000000000000000000000000000000000000000000000338b8b8b8b8b8b8b8b633b9aca006040516200063c9062000947565b620006529b9a9998979695949392919062000c24565b604051809103906000f0801580156200066f573d6000803e3d6000fd5b5060028054600181810183557f405787fa12a823e0f2b7631cc41b3ba8828b3321ca811111fa75cd3aa3bb5ace90910180546001600160a01b0385166001600160a01b031991821681179092556000828152600360209081526040808320805460ff191687179055338084526004835290832080548088018255908452919092200180549092168317909155925493955085945091927ff886c9e090c39d71c2f162931b9cae46753a47e9fd4b9303be564b64ce1d6f55918e918e918e918e918e918e918e918e91620007429162000bb9565b604051620007599998979695949392919062000caf565b60405180910390a35098975050505050505050565b6000546001600160a01b03163314620003895760405163118cdaa760e01b81523360048201526024016200059d565b620007ac83838360016200086b565b620007d657604051635274afe760e01b81526001600160a01b03841660048201526024016200059d565b505050565b600080546001600160a01b038381166001600160a01b0319831681178455604051919092169283917f8be0079c531659141344cd1fd0a4f28419497f9722a3daafe3b4186f6b6457e09190a35050565b6200083b848484846001620008d3565b6200086557604051635274afe760e01b81526001600160a01b03851660048201526024016200059d565b50505050565b60405163a9059cbb60e01b60008181526001600160a01b038616600452602485905291602083604481808b5af192506001600051148316620008c7578383151615620008ba573d6000823e3d81fd5b6000873b113d1516831692505b60405250949350505050565b6040516323b872dd60e01b60008181526001600160a01b038781166004528616602452604485905291602083606481808c5af1925060016000511483166200093557838315161562000928573d6000823e3d81fd5b6000883b113d1516831692505b60405250600060605295945050505050565b61132b8062000d2083390190565b80356001600160a01b03811681146200096d57600080fd5b919050565b6000602082840312156200098557600080fd5b620009908262000955565b9392505050565b60008060408385031215620009ab57600080fd5b50508035926020909101359150565b6020808252825182820181905260009190848201906040850190845b81811015620009fd5783516001600160a01b031683529284019291840191600101620009d6565b50909695505050505050565b60006020828403121562000a1c57600080fd5b5035919050565b6000806040838503121562000a3757600080fd5b62000a428362000955565b946020939093013593505050565b60008083601f84011262000a6357600080fd5b50813567ffffffffffffffff81111562000a7c57600080fd5b60208301915083602082850101111562000a9557600080fd5b9250929050565b6000806000806000806000806080898b03121562000ab957600080fd5b883567ffffffffffffffff8082111562000ad257600080fd5b62000ae08c838d0162000a50565b909a50985060208b013591508082111562000afa57600080fd5b62000b088c838d0162000a50565b909850965060408b013591508082111562000b2257600080fd5b62000b308c838d0162000a50565b909650945060608b013591508082111562000b4a57600080fd5b5062000b598b828c0162000a50565b999c989b5096995094979396929594505050565b60006020828403121562000b8057600080fd5b5051919050565b634e487b7160e01b600052601160045260246000fd5b8082018082111562000bb35762000bb362000b87565b92915050565b8181038181111562000bb35762000bb362000b87565b634e487b7160e01b600052604160045260246000fd5b634e487b7160e01b600052603260045260246000fd5b81835281816020850137506000828201602090810191909152601f909101601f19169091010190565b6001600160a01b038c811682528b16602082015260e06040820181905260009062000c539083018b8d62000bfb565b828103606084015262000c68818a8c62000bfb565b9050828103608084015262000c7f81888a62000bfb565b905082810360a084015262000c9681868862000bfb565b9150508260c08301529c9b505050505050505050505050565b60a08152600062000cc560a083018b8d62000bfb565b828103602084015262000cda818a8c62000bfb565b9050828103604084015262000cf181888a62000bfb565b9050828103606084015262000d0881868862000bfb565b9150508260808301529a995050505050505050505056fe60e06040523480156200001157600080fd5b506040516200132b3803806200132b8339810160408190526200003491620001b7565b60017f9b779b17422d0df92223018b32b4d1fa46e071723d6817e2486d003becc55f00556001600160a01b03808816608052861660a052600062000079868262000331565b50600162000088858262000331565b50600262000097848262000331565b506003620000a6838262000331565b5060048190556005819055620000bd8180620003fd565b60c052505042600c5550620004299350505050565b80516001600160a01b0381168114620000ea57600080fd5b919050565b634e487b7160e01b600052604160045260246000fd5b600082601f8301126200011757600080fd5b81516001600160401b0380821115620001345762000134620000ef565b604051601f8301601f19908116603f011681019082821181831017156200015f576200015f620000ef565b81604052838152602092508660208588010111156200017d57600080fd5b600091505b83821015620001a1578582018301518183018401529082019062000182565b6000602085830101528094505050505092915050565b600080600080600080600060e0888a031215620001d357600080fd5b620001de88620000d2565b9650620001ee60208901620000d2565b60408901519096506001600160401b03808211156200020c57600080fd5b6200021a8b838c0162000105565b965060608a01519150808211156200023157600080fd5b6200023f8b838c0162000105565b955060808a01519150808211156200025657600080fd5b620002648b838c0162000105565b945060a08a01519150808211156200027b57600080fd5b506200028a8a828b0162000105565b92505060c0880151905092959891949750929550565b600181811c90821680620002b557607f821691505b602082108103620002d657634e487b7160e01b600052602260045260246000fd5b50919050565b601f8211156200032c576000816000526020600020601f850160051c81016020861015620003075750805b601f850160051c820191505b81811015620003285782815560010162000313565b5050505b505050565b81516001600160401b038111156200034d576200034d620000ef565b62000365816200035e8454620002a0565b84620002dc565b602080601f8311600181146200039d5760008415620003845750858301515b600019600386901b1c1916600185901b17855562000328565b600085815260208120601f198616915b82811015620003ce57888601518255948401946001909101908401620003ad565b5085821015620003ed5787850151600019600388901b60f8161c191681555b5050505050600190811b01905550565b80820281158282048414176200042357634e487b7160e01b600052601160045260246000fd5b92915050565b60805160a05160c051610e7e620004ad600039600081816102ce015281816103a6015281816105df0152818161073f015261097901526000818161017d0152818161086c0152610aa6015260008181610201015281816103640152818161059d0152818161084a0152818161089e01528181610a840152610ad80152610e7e6000f3fe608060405234801561001057600080fd5b50600436106101735760003560e01c80638a65eccb116100de578063b635356711610097578063cf09e0d011610071578063cf09e0d014610313578063dc5fa6c51461031c578063dc6acd0214610325578063ef430aa61461033857600080fd5b8063b6353567146102f0578063bf63a577146102f8578063c1f5399f1461030057600080fd5b80638a65eccb146102815780638eb1a4ad1461028a578063a06d363c1461029f578063a355f897146102b2578063aaf5eb68146102ba578063b4f40c61146102c957600080fd5b8063558d43a011610130578063558d43a01461022c57806358e60fca1461023f5780635d057f12146102475780635f81a57c146102505780637759414e1461025957806387de74e61461026157600080fd5b806302d05d3f1461017857806319e36f3b146101bc578063352cc4dd146101d357806335b72d97146101f35780633e413bee146101fc5780634590456714610223575b600080fd5b61019f7f000000000000000000000000000000000000000000000000000000000000000081565b6040516001600160a01b0390911681526020015b60405180910390f35b6101c560055481565b6040519081526020016101b3565b6101c56101e1366004610cdb565b60076020526000908152604090205481565b6101c5600b5481565b61019f7f000000000000000000000000000000000000000000000000000000000000000081565b6101c5610bb881565b6101c561023a366004610d0b565b610340565b6101c56104b4565b6101c560085481565b6101c5600a5481565b6101c5603281565b6101c561026f366004610cdb565b60066020526000908152604090205481565b6101c560095481565b6102926104eb565b6040516101b39190610d24565b6101c56102ad366004610d0b565b610579565b6102926106b1565b6101c5670de0b6b3a764000081565b6101c57f000000000000000000000000000000000000000000000000000000000000000081565b6101c56106be565b6102926106e6565b6101c561030e366004610d0b565b6106f3565b6101c5600c5481565b6101c560045481565b6101c5610333366004610d0b565b61092d565b610292610b2d565b600061034a610b3a565b6000821161035757600080fd5b61038c6001600160a01b037f000000000000000000000000000000000000000000000000000000000000000016333085610b56565b60008260045461039c9190610d89565b905060006103ca827f0000000000000000000000000000000000000000000000000000000000000000610da2565b9050806005546103da9190610dc4565b9250600083116103e957600080fd5b600482905560058190553360009081526007602052604081208054859290610412908490610d89565b92505081905550826009600082825461042b9190610d89565b9250508190555083600a60008282546104449190610d89565b9091555060009050337ff83f2b306d0785a8fd91972b82022c61df48599aa76e1fbaef976390424f9f2386866104786106be565b6040805193845260208401929092529082015260600160405180910390a350506104af6001600080516020610e2983398151915255565b919050565b60006005546004546104c69190610d89565b670de0b6b3a76400006004546104dc9190610dd7565b6104e69190610da2565b905090565b600180546104f890610dee565b80601f016020809104026020016040519081016040528092919081815260200182805461052490610dee565b80156105715780601f1061054657610100808354040283529160200191610571565b820191906000526020600020905b81548152906001019060200180831161055457829003601f168201915b505050505081565b6000610583610b3a565b6000821161059057600080fd5b6105c56001600160a01b037f000000000000000000000000000000000000000000000000000000000000000016333085610b56565b6000826005546105d59190610d89565b90506000610603827f0000000000000000000000000000000000000000000000000000000000000000610da2565b9050806004546106139190610dc4565b92506000831161062257600080fd5b60048190556005829055336000908152600660205260408120805485929061064b908490610d89565b9250508190555082600860008282546106649190610d89565b9250508190555083600a600082825461067d9190610d89565b9091555060019050337ff83f2b306d0785a8fd91972b82022c61df48599aa76e1fbaef976390424f9f2386866104786106be565b600280546104f890610dee565b60006005546004546106d09190610d89565b670de0b6b3a76400006005546104dc9190610dd7565b600080546104f890610dee565b60006106fd610b3a565b60008211801561071c5750336000908152600760205260409020548211155b61072557600080fd5b6000826005546107359190610d89565b90506000610763827f0000000000000000000000000000000000000000000000000000000000000000610da2565b90506000816004546107759190610dc4565b60048390556005849055336000908152600760205260408120805492935087929091906107a3908490610dc4565b9250508190555084600960008282546107bc9190610dc4565b90915550600090506127106107d2603284610dd7565b6107dc9190610da2565b905060006127106107ef610bb884610dd7565b6107f99190610da2565b90506108058284610dc4565b955082600a60008282546108199190610d89565b9250508190555080600b60008282546108329190610d89565b90915550508015610891576108916001600160a01b037f0000000000000000000000000000000000000000000000000000000000000000167f000000000000000000000000000000000000000000000000000000000000000083610b97565b6108c56001600160a01b037f0000000000000000000000000000000000000000000000000000000000000000163388610b97565b6000337f5c7fc5fe75305fafcd56d45a72aa79d07ce6f22966e5c0b8ddefcbe6ae5f393089896108f36106be565b6040805193845260208401929092529082015260600160405180910390a350505050506104af6001600080516020610e2983398151915255565b6000610937610b3a565b6000821180156109565750336000908152600660205260409020548211155b61095f57600080fd5b60008260045461096f9190610d89565b9050600061099d827f0000000000000000000000000000000000000000000000000000000000000000610da2565b90506000816005546109af9190610dc4565b60048490556005839055336000908152600660205260408120805492935087929091906109dd908490610dc4565b9250508190555084600860008282546109f69190610dc4565b9091555060009050612710610a0c603284610dd7565b610a169190610da2565b90506000612710610a29610bb884610dd7565b610a339190610da2565b9050610a3f8284610dc4565b955082600a6000828254610a539190610d89565b9250508190555080600b6000828254610a6c9190610d89565b90915550508015610acb57610acb6001600160a01b037f0000000000000000000000000000000000000000000000000000000000000000167f000000000000000000000000000000000000000000000000000000000000000083610b97565b610aff6001600160a01b037f0000000000000000000000000000000000000000000000000000000000000000163388610b97565b6001337f5c7fc5fe75305fafcd56d45a72aa79d07ce6f22966e5c0b8ddefcbe6ae5f393089896108f36106be565b600380546104f890610dee565b610b42610bd1565b6002600080516020610e2983398151915255565b610b64848484846001610c03565b610b9157604051635274afe760e01b81526001600160a01b03851660048201526024015b60405180910390fd5b50505050565b610ba48383836001610c75565b610bcc57604051635274afe760e01b81526001600160a01b0384166004820152602401610b88565b505050565b600080516020610e2983398151915254600203610c0157604051633ee5aeb560e01b815260040160405180910390fd5b565b6040516323b872dd60e01b60008181526001600160a01b038781166004528616602452604485905291602083606481808c5af192506001600051148316610c63578383151615610c56573d6000823e3d81fd5b6000883b113d1516831692505b60405250600060605295945050505050565b60405163a9059cbb60e01b60008181526001600160a01b038616600452602485905291602083604481808b5af192506001600051148316610ccf578383151615610cc2573d6000823e3d81fd5b6000873b113d1516831692505b60405250949350505050565b600060208284031215610ced57600080fd5b81356001600160a01b0381168114610d0457600080fd5b9392505050565b600060208284031215610d1d57600080fd5b5035919050565b60006020808352835180602085015260005b81811015610d5257858101830151858201604001528201610d36565b506000604082860101526040601f19601f8301168501019250505092915050565b634e487b7160e01b600052601160045260246000fd5b80820180821115610d9c57610d9c610d73565b92915050565b600082610dbf57634e487b7160e01b600052601260045260246000fd5b500490565b81810381811115610d9c57610d9c610d73565b8082028115828204841417610d9c57610d9c610d73565b600181811c90821680610e0257607f821691505b602082108103610e2257634e487b7160e01b600052602260045260246000fd5b5091905056fe9b779b17422d0df92223018b32b4d1fa46e071723d6817e2486d003becc55f00a26469706673582212201bd765cf87fc8370f29d1fb2027be2fb515b69922392b6569907cf9b0c74140064736f6c63430008180033a2646970667358221220f4fe6f89ca9d9b1abb4a4d89cbc56f193f85e893ad1c5d17475f1c9997660af864736f6c63430008180033",
  "linkReferences": {},
  "deployedLinkReferences": {}
}